{
  "contractName": "Hospital",
  "abi": [
    {
      "anonymous": false,
      "inputs": [
        {
          "indexed": false,
          "internalType": "bytes32",
          "name": "hsId",
          "type": "bytes32"
        }
      ],
      "name": "HospitalAdded",
      "type": "event"
    },
    {
      "anonymous": false,
      "inputs": [
        {
          "indexed": true,
          "internalType": "address",
          "name": "previousOwner",
          "type": "address"
        },
        {
          "indexed": true,
          "internalType": "address",
          "name": "newOwner",
          "type": "address"
        }
      ],
      "name": "OwnershipTransferred",
      "type": "event"
    },
    {
      "anonymous": false,
      "inputs": [
        {
          "indexed": true,
          "internalType": "bytes32",
          "name": "role",
          "type": "bytes32"
        },
        {
          "indexed": true,
          "internalType": "bytes32",
          "name": "previousAdminRole",
          "type": "bytes32"
        },
        {
          "indexed": true,
          "internalType": "bytes32",
          "name": "newAdminRole",
          "type": "bytes32"
        }
      ],
      "name": "RoleAdminChanged",
      "type": "event"
    },
    {
      "anonymous": false,
      "inputs": [
        {
          "indexed": true,
          "internalType": "bytes32",
          "name": "role",
          "type": "bytes32"
        },
        {
          "indexed": true,
          "internalType": "address",
          "name": "account",
          "type": "address"
        },
        {
          "indexed": true,
          "internalType": "address",
          "name": "sender",
          "type": "address"
        }
      ],
      "name": "RoleGranted",
      "type": "event"
    },
    {
      "anonymous": false,
      "inputs": [
        {
          "indexed": true,
          "internalType": "bytes32",
          "name": "role",
          "type": "bytes32"
        },
        {
          "indexed": true,
          "internalType": "address",
          "name": "account",
          "type": "address"
        },
        {
          "indexed": true,
          "internalType": "address",
          "name": "sender",
          "type": "address"
        }
      ],
      "name": "RoleRevoked",
      "type": "event"
    },
    {
      "anonymous": false,
      "inputs": [
        {
          "indexed": false,
          "internalType": "bytes32",
          "name": "userId",
          "type": "bytes32"
        },
        {
          "indexed": false,
          "internalType": "bytes32",
          "name": "userRole",
          "type": "bytes32"
        },
        {
          "indexed": false,
          "internalType": "address",
          "name": "userAdd",
          "type": "address"
        },
        {
          "indexed": false,
          "internalType": "bytes32",
          "name": "userHs",
          "type": "bytes32"
        }
      ],
      "name": "UserAdded",
      "type": "event"
    },
    {
      "anonymous": false,
      "inputs": [
        {
          "indexed": false,
          "internalType": "bytes32",
          "name": "userId",
          "type": "bytes32"
        },
        {
          "indexed": false,
          "internalType": "bytes32",
          "name": "userRole",
          "type": "bytes32"
        },
        {
          "indexed": false,
          "internalType": "address",
          "name": "userAdd",
          "type": "address"
        }
      ],
      "name": "UserRemoved",
      "type": "event"
    },
    {
      "inputs": [],
      "name": "DEFAULT_ADMIN_ROLE",
      "outputs": [
        {
          "internalType": "bytes32",
          "name": "",
          "type": "bytes32"
        }
      ],
      "stateMutability": "view",
      "type": "function"
    },
    {
      "inputs": [],
      "name": "DOCTOR",
      "outputs": [
        {
          "internalType": "bytes32",
          "name": "",
          "type": "bytes32"
        }
      ],
      "stateMutability": "view",
      "type": "function"
    },
    {
      "inputs": [],
      "name": "HS_ADMIN",
      "outputs": [
        {
          "internalType": "bytes32",
          "name": "",
          "type": "bytes32"
        }
      ],
      "stateMutability": "view",
      "type": "function"
    },
    {
      "inputs": [],
      "name": "LAB_ASST",
      "outputs": [
        {
          "internalType": "bytes32",
          "name": "",
          "type": "bytes32"
        }
      ],
      "stateMutability": "view",
      "type": "function"
    },
    {
      "inputs": [],
      "name": "MREP",
      "outputs": [
        {
          "internalType": "bytes32",
          "name": "",
          "type": "bytes32"
        }
      ],
      "stateMutability": "view",
      "type": "function"
    },
    {
      "inputs": [],
      "name": "NM_ADMIN",
      "outputs": [
        {
          "internalType": "bytes32",
          "name": "",
          "type": "bytes32"
        }
      ],
      "stateMutability": "view",
      "type": "function"
    },
    {
      "inputs": [],
      "name": "NO_HS",
      "outputs": [
        {
          "internalType": "bytes32",
          "name": "",
          "type": "bytes32"
        }
      ],
      "stateMutability": "view",
      "type": "function"
    },
    {
      "inputs": [
        {
          "internalType": "bytes32",
          "name": "_id",
          "type": "bytes32"
        },
        {
          "internalType": "bytes32",
          "name": "_addingUser",
          "type": "bytes32"
        },
        {
          "internalType": "address",
          "name": "_address",
          "type": "address"
        },
        {
          "internalType": "bytes32",
          "name": "_hospitalId",
          "type": "bytes32"
        }
      ],
      "name": "addUser",
      "outputs": [],
      "stateMutability": "nonpayable",
      "type": "function"
    },
    {
      "inputs": [],
      "name": "getAllUsers",
      "outputs": [
        {
          "internalType": "bytes32[]",
          "name": "",
          "type": "bytes32[]"
        },
        {
          "internalType": "bytes32[]",
          "name": "",
          "type": "bytes32[]"
        }
      ],
      "stateMutability": "view",
      "type": "function"
    },
    {
      "inputs": [
        {
          "internalType": "bytes32",
          "name": "role",
          "type": "bytes32"
        }
      ],
      "name": "getRoleAdmin",
      "outputs": [
        {
          "internalType": "bytes32",
          "name": "",
          "type": "bytes32"
        }
      ],
      "stateMutability": "view",
      "type": "function"
    },
    {
      "inputs": [
        {
          "internalType": "bytes32",
          "name": "role",
          "type": "bytes32"
        },
        {
          "internalType": "address",
          "name": "account",
          "type": "address"
        }
      ],
      "name": "grantRole",
      "outputs": [],
      "stateMutability": "nonpayable",
      "type": "function"
    },
    {
      "inputs": [
        {
          "internalType": "bytes32",
          "name": "role",
          "type": "bytes32"
        },
        {
          "internalType": "address",
          "name": "account",
          "type": "address"
        }
      ],
      "name": "hasRole",
      "outputs": [
        {
          "internalType": "bool",
          "name": "",
          "type": "bool"
        }
      ],
      "stateMutability": "view",
      "type": "function"
    },
    {
      "inputs": [],
      "name": "owner",
      "outputs": [
        {
          "internalType": "address",
          "name": "",
          "type": "address"
        }
      ],
      "stateMutability": "view",
      "type": "function"
    },
    {
      "inputs": [
        {
          "internalType": "bytes32",
          "name": "_id",
          "type": "bytes32"
        },
        {
          "internalType": "bytes32",
          "name": "_removingUser",
          "type": "bytes32"
        },
        {
          "internalType": "address",
          "name": "_address",
          "type": "address"
        }
      ],
      "name": "removeUser",
      "outputs": [],
      "stateMutability": "nonpayable",
      "type": "function"
    },
    {
      "inputs": [],
      "name": "renounceOwnership",
      "outputs": [],
      "stateMutability": "nonpayable",
      "type": "function"
    },
    {
      "inputs": [
        {
          "internalType": "bytes32",
          "name": "role",
          "type": "bytes32"
        },
        {
          "internalType": "address",
          "name": "account",
          "type": "address"
        }
      ],
      "name": "renounceRole",
      "outputs": [],
      "stateMutability": "nonpayable",
      "type": "function"
    },
    {
      "inputs": [
        {
          "internalType": "bytes32",
          "name": "role",
          "type": "bytes32"
        },
        {
          "internalType": "address",
          "name": "account",
          "type": "address"
        }
      ],
      "name": "revokeRole",
      "outputs": [],
      "stateMutability": "nonpayable",
      "type": "function"
    },
    {
      "inputs": [
        {
          "internalType": "address",
          "name": "",
          "type": "address"
        }
      ],
      "name": "roleOfUser",
      "outputs": [
        {
          "internalType": "bytes32",
          "name": "",
          "type": "bytes32"
        }
      ],
      "stateMutability": "view",
      "type": "function"
    },
    {
      "inputs": [],
      "name": "seeOwner",
      "outputs": [
        {
          "internalType": "address",
          "name": "",
          "type": "address"
        }
      ],
      "stateMutability": "view",
      "type": "function"
    },
    {
      "inputs": [
        {
          "internalType": "bytes4",
          "name": "interfaceId",
          "type": "bytes4"
        }
      ],
      "name": "supportsInterface",
      "outputs": [
        {
          "internalType": "bool",
          "name": "",
          "type": "bool"
        }
      ],
      "stateMutability": "view",
      "type": "function"
    },
    {
      "inputs": [
        {
          "internalType": "address",
          "name": "newOwner",
          "type": "address"
        }
      ],
      "name": "transferOwnership",
      "outputs": [],
      "stateMutability": "nonpayable",
      "type": "function"
    },
    {
      "inputs": [
        {
          "internalType": "bytes32",
          "name": "",
          "type": "bytes32"
        }
      ],
      "name": "userCountRole",
      "outputs": [
        {
          "internalType": "uint256",
          "name": "",
          "type": "uint256"
        }
      ],
      "stateMutability": "view",
      "type": "function"
    },
    {
      "inputs": [
        {
          "internalType": "bytes32",
          "name": "",
          "type": "bytes32"
        },
        {
          "internalType": "uint256",
          "name": "",
          "type": "uint256"
        }
      ],
      "name": "usersForARole",
      "outputs": [
        {
          "internalType": "bytes32",
          "name": "id",
          "type": "bytes32"
        },
        {
          "internalType": "bytes32",
          "name": "urole",
          "type": "bytes32"
        }
      ],
      "stateMutability": "view",
      "type": "function"
    },
    {
      "inputs": [
        {
          "internalType": "bytes32",
          "name": "_hospitalId",
          "type": "bytes32"
        }
      ],
      "name": "addHospital",
      "outputs": [],
      "stateMutability": "nonpayable",
      "type": "function"
    },
    {
      "inputs": [],
      "name": "getAllHospitals",
      "outputs": [
        {
          "internalType": "bytes32[]",
          "name": "",
          "type": "bytes32[]"
        }
      ],
      "stateMutability": "view",
      "type": "function"
    }
  ],
  "bytecode": "0x60806040526000801b6002557f39349db958ca58bbd5da126bd654d05d8d0c93f86805918f236dc076194e195560001b6003553480156200003f57600080fd5b506200006062000054620001f860201b60201c565b6200020060201b60201c565b620000756000801b33620002c460201b60201c565b620000aa7fc853308605851716aebf9b8085de39c1c4ef8de095a393b3a950e2fb1686bf836000801b620003b560201b60201c565b620000fc7f8422142255c844d3d4a5104b709d1da65e3e4b88bc607f47279dd1baf7acc8087fc853308605851716aebf9b8085de39c1c4ef8de095a393b3a950e2fb1686bf83620003b560201b60201c565b6200014e7fc2af34e7cc1f3d8808f569d6d46a95c4217b618edefc26d793e3a6c23dfe262f7fc853308605851716aebf9b8085de39c1c4ef8de095a393b3a950e2fb1686bf83620003b560201b60201c565b620001a07fc9c8e67a61d2e7371df46522b44051b955c16bf4b713ef44e1373b25bfcd80b27fc853308605851716aebf9b8085de39c1c4ef8de095a393b3a950e2fb1686bf83620003b560201b60201c565b620001f27ffff7b8e4ac10566d090c9cdfc71d80fcc431b76ce09edaddaa421288a053208a7f8422142255c844d3d4a5104b709d1da65e3e4b88bc607f47279dd1baf7acc808620003b560201b60201c565b620004a4565b600033905090565b60008060009054906101000a900473ffffffffffffffffffffffffffffffffffffffff169050816000806101000a81548173ffffffffffffffffffffffffffffffffffffffff021916908373ffffffffffffffffffffffffffffffffffffffff1602179055508173ffffffffffffffffffffffffffffffffffffffff168173ffffffffffffffffffffffffffffffffffffffff167f8be0079c531659141344cd1fd0a4f28419497f9722a3daafe3b4186f6b6457e060405160405180910390a35050565b620002d682826200041960201b60201c565b620003b157600180600084815260200190815260200160002060000160008373ffffffffffffffffffffffffffffffffffffffff1673ffffffffffffffffffffffffffffffffffffffff16815260200190815260200160002060006101000a81548160ff02191690831515021790555062000356620001f860201b60201c565b73ffffffffffffffffffffffffffffffffffffffff168173ffffffffffffffffffffffffffffffffffffffff16837f2f8788117e7eff1d82e926ec794901d17c78024a50270940304540a733656f0d60405160405180910390a45b5050565b6000620003c8836200048460201b60201c565b90508160016000858152602001908152602001600020600101819055508181847fbd79b86ffe0ab8e8776151514217cd7cacd52c909f66475c3af44e129f0b00ff60405160405180910390a4505050565b60006001600084815260200190815260200160002060000160008373ffffffffffffffffffffffffffffffffffffffff1673ffffffffffffffffffffffffffffffffffffffff16815260200190815260200160002060009054906101000a900460ff16905092915050565b600060016000838152602001908152602001600020600101549050919050565b611ee280620004b46000396000f3fe608060405234801561001057600080fd5b50600436106101725760003560e01c8063695d59b5116100de578063a217fddf11610097578063d547741f11610071578063d547741f1461043c578063e2842d7914610458578063e41a9d5514610477578063f2fde38b1461049557610172565b8063a217fddf146103e2578063b091b3a314610400578063b21e20eb1461041e57610172565b8063695d59b514610320578063715018a61461033e5780638da5cb5b146103485780638e3916801461036657806390c2ef6e1461039657806391d14854146103b257610172565b80632edd865a116101305780632edd865a146102725780632efbdf821461028e5780632f2ff15d146102ac57806336568abe146102c85780634e9f7154146102e4578063524fda901461030257610172565b80623045681461017757806301a44eff146101a757806301ffc9a7146101c557806304f162c3146101f55780631846027c14610211578063248a9ca314610242575b600080fd5b610191600480360381019061018c91906114f4565b6104b1565b60405161019e919061153a565b60405180910390f35b6101af6104c9565b6040516101bc9190611564565b60405180910390f35b6101df60048036038101906101da91906115d7565b6104d1565b6040516101ec919061161f565b60405180910390f35b61020f600480360381019061020a9190611666565b61054b565b005b61022b600480360381019061022691906116ef565b61075f565b60405161023992919061172f565b60405180910390f35b61025c60048036038101906102579190611758565b6107a0565b604051610269919061153a565b60405180910390f35b61028c60048036038101906102879190611785565b6107c0565b005b610296610a89565b6040516102a3919061153a565b60405180910390f35b6102c660048036038101906102c191906117ec565b610aad565b005b6102e260048036038101906102dd91906117ec565b610ace565b005b6102ec610b51565b6040516102f991906118ea565b60405180910390f35b61030a610c0e565b604051610317919061153a565b60405180910390f35b610328610c32565b604051610335919061153a565b60405180910390f35b610346610c56565b005b610350610c6a565b60405161035d9190611564565b60405180910390f35b610380600480360381019061037b9190611758565b610c93565b60405161038d919061191b565b60405180910390f35b6103b060048036038101906103ab9190611758565b610cab565b005b6103cc60048036038101906103c791906117ec565b610d39565b6040516103d9919061161f565b60405180910390f35b6103ea610da4565b6040516103f7919061153a565b60405180910390f35b610408610dab565b604051610415919061153a565b60405180910390f35b610426610dcf565b604051610433919061153a565b60405180910390f35b610456600480360381019061045191906117ec565b610dd5565b005b610460610df6565b60405161046e929190611936565b60405180910390f35b61047f610f57565b60405161048c919061153a565b60405180910390f35b6104af60048036038101906104aa91906114f4565b610f7b565b005b60046020528060005260406000206000915090505481565b600033905090565b60007f7965db0b000000000000000000000000000000000000000000000000000000007bffffffffffffffffffffffffffffffffffffffffffffffffffffffff1916827bffffffffffffffffffffffffffffffffffffffffffffffffffffffff19161480610544575061054382610ffe565b5b9050919050565b82600660008373ffffffffffffffffffffffffffffffffffffffff1673ffffffffffffffffffffffffffffffffffffffff16815260200190815260200160002060000154146105cf576040517f08c379a00000000000000000000000000000000000000000000000000000000081526004016105c6906119ca565b60405180910390fd5b60005b6005805490508110156107595783600582815481106105f4576105f36119ea565b5b90600052602060002090600202016000015403610746576005818154811061061f5761061e6119ea565b5b906000526020600020906002020160008082016000905560018201600090555050600660008373ffffffffffffffffffffffffffffffffffffffff1673ffffffffffffffffffffffffffffffffffffffff16815260200190815260200160002060008082016000905560018201600090555050600460008373ffffffffffffffffffffffffffffffffffffffff1673ffffffffffffffffffffffffffffffffffffffff168152602001908152602001600020600090556106df8383610dd5565b60016007600085815260200190815260200160002060008282546107039190611a48565b925050819055507f29b7effafd8766b71f8b02ac5b6178267f0008e511d45c73f9cad93ae2eed70684848460405161073d93929190611a7c565b60405180910390a15b808061075190611ab3565b9150506105d2565b50505050565b6008602052816000526040600020818154811061077b57600080fd5b9060005260206000209060020201600091509150508060000154908060010154905082565b600060016000838152602001908152602001600020600101549050919050565b600254600460008473ffffffffffffffffffffffffffffffffffffffff1673ffffffffffffffffffffffffffffffffffffffff1681526020019081526020016000205414610843576040517f08c379a000000000000000000000000000000000000000000000000000000000815260040161083a90611b47565b60405180910390fd5b600354811461091a5761085581611068565b610894576040517f08c379a000000000000000000000000000000000000000000000000000000000815260040161088b90611bb3565b60405180910390fd5b7f8422142255c844d3d4a5104b709d1da65e3e4b88bc607f47279dd1baf7acc80883036108d85780600a600086815260200190815260200160002081905550610919565b7ffff7b8e4ac10566d090c9cdfc71d80fcc431b76ce09edaddaa421288a053208a83036109185780600b6000868152602001908152602001600020819055505b5b5b6000604051806040016040528086815260200185815250905060058190806001815401808255809150506001900390600052602060002090600202016000909190919091506000820151816000015560208201518160010155505080600660008573ffffffffffffffffffffffffffffffffffffffff1673ffffffffffffffffffffffffffffffffffffffff16815260200190815260200160002060008201518160000155602082015181600101559050506109d68484610aad565b83600460008573ffffffffffffffffffffffffffffffffffffffff1673ffffffffffffffffffffffffffffffffffffffff168152602001908152602001600020819055506001600760008681526020019081526020016000206000828254610a3e9190611bd3565b925050819055507fb44122948ed009a8c34bf0c6f2b114d851979eb80b52f0e129e408036b7952a585858585604051610a7a9493929190611c07565b60405180910390a15050505050565b7fc9c8e67a61d2e7371df46522b44051b955c16bf4b713ef44e1373b25bfcd80b281565b610ab6826107a0565b610abf816110ed565b610ac98383611101565b505050565b610ad66111e1565b73ffffffffffffffffffffffffffffffffffffffff168173ffffffffffffffffffffffffffffffffffffffff1614610b43576040517f08c379a0000000000000000000000000000000000000000000000000000000008152600401610b3a90611cbe565b60405180910390fd5b610b4d82826111e9565b5050565b6060600060098054905067ffffffffffffffff811115610b7457610b73611cde565b5b604051908082528060200260200182016040528015610ba25781602001602082028036833780820191505090505b50905060005b600980549050811015610c065760098181548110610bc957610bc86119ea565b5b9060005260206000200154828281518110610be757610be66119ea565b5b6020026020010181815250508080610bfe90611ab3565b915050610ba8565b508091505090565b7ffff7b8e4ac10566d090c9cdfc71d80fcc431b76ce09edaddaa421288a053208a81565b7fc2af34e7cc1f3d8808f569d6d46a95c4217b618edefc26d793e3a6c23dfe262f81565b610c5e6112cb565b610c686000611349565b565b60008060009054906101000a900473ffffffffffffffffffffffffffffffffffffffff16905090565b60076020528060005260406000206000915090505481565b7fc853308605851716aebf9b8085de39c1c4ef8de095a393b3a950e2fb1686bf83610cd5816110ed565b60098290806001815401808255809150506001900390600052602060002001600090919091909150557f1894c05770e5b3b9dd2f4d14f23344ab05dea017607150d7ba80bc9343a7e9de82604051610d2d919061153a565b60405180910390a15050565b60006001600084815260200190815260200160002060000160008373ffffffffffffffffffffffffffffffffffffffff1673ffffffffffffffffffffffffffffffffffffffff16815260200190815260200160002060009054906101000a900460ff16905092915050565b6000801b81565b7fc853308605851716aebf9b8085de39c1c4ef8de095a393b3a950e2fb1686bf8381565b60035481565b610dde826107a0565b610de7816110ed565b610df183836111e9565b505050565b606080600060058054905067ffffffffffffffff811115610e1a57610e19611cde565b5b604051908082528060200260200182016040528015610e485781602001602082028036833780820191505090505b509050600060058054905067ffffffffffffffff811115610e6c57610e6b611cde565b5b604051908082528060200260200182016040528015610e9a5781602001602082028036833780820191505090505b50905060005b600580549050811015610f4a5760058181548110610ec157610ec06119ea565b5b906000526020600020906002020160000154838281518110610ee657610ee56119ea565b5b60200260200101818152505060058181548110610f0657610f056119ea565b5b906000526020600020906002020160010154828281518110610f2b57610f2a6119ea565b5b6020026020010181815250508080610f4290611ab3565b915050610ea0565b5081819350935050509091565b7f8422142255c844d3d4a5104b709d1da65e3e4b88bc607f47279dd1baf7acc80881565b610f836112cb565b600073ffffffffffffffffffffffffffffffffffffffff168173ffffffffffffffffffffffffffffffffffffffff1603610ff2576040517f08c379a0000000000000000000000000000000000000000000000000000000008152600401610fe990611d7f565b60405180910390fd5b610ffb81611349565b50565b60007f01ffc9a7000000000000000000000000000000000000000000000000000000007bffffffffffffffffffffffffffffffffffffffffffffffffffffffff1916827bffffffffffffffffffffffffffffffffffffffffffffffffffffffff1916149050919050565b60007fc853308605851716aebf9b8085de39c1c4ef8de095a393b3a950e2fb1686bf83611094816110ed565b6000805b6009805490508110156110e25784600982815481106110ba576110b96119ea565b5b9060005260206000200154036110cf57600191505b80806110da90611ab3565b915050611098565b508092505050919050565b6110fe816110f96111e1565b61140d565b50565b61110b8282610d39565b6111dd57600180600084815260200190815260200160002060000160008373ffffffffffffffffffffffffffffffffffffffff1673ffffffffffffffffffffffffffffffffffffffff16815260200190815260200160002060006101000a81548160ff0219169083151502179055506111826111e1565b73ffffffffffffffffffffffffffffffffffffffff168173ffffffffffffffffffffffffffffffffffffffff16837f2f8788117e7eff1d82e926ec794901d17c78024a50270940304540a733656f0d60405160405180910390a45b5050565b600033905090565b6111f38282610d39565b156112c75760006001600084815260200190815260200160002060000160008373ffffffffffffffffffffffffffffffffffffffff1673ffffffffffffffffffffffffffffffffffffffff16815260200190815260200160002060006101000a81548160ff02191690831515021790555061126c6111e1565b73ffffffffffffffffffffffffffffffffffffffff168173ffffffffffffffffffffffffffffffffffffffff16837ff6391f5c32d9c69d2a47ea670b442974b53935d1edc7fd64eb21e047a839171b60405160405180910390a45b5050565b6112d36111e1565b73ffffffffffffffffffffffffffffffffffffffff166112f1610c6a565b73ffffffffffffffffffffffffffffffffffffffff1614611347576040517f08c379a000000000000000000000000000000000000000000000000000000000815260040161133e90611deb565b60405180910390fd5b565b60008060009054906101000a900473ffffffffffffffffffffffffffffffffffffffff169050816000806101000a81548173ffffffffffffffffffffffffffffffffffffffff021916908373ffffffffffffffffffffffffffffffffffffffff1602179055508173ffffffffffffffffffffffffffffffffffffffff168173ffffffffffffffffffffffffffffffffffffffff167f8be0079c531659141344cd1fd0a4f28419497f9722a3daafe3b4186f6b6457e060405160405180910390a35050565b6114178282610d39565b61148d576040518060400160405280601181526020017f556e617574686f72697a65643a204143520000000000000000000000000000008152506040517f08c379a00000000000000000000000000000000000000000000000000000000081526004016114849190611e8a565b60405180910390fd5b5050565b600080fd5b600073ffffffffffffffffffffffffffffffffffffffff82169050919050565b60006114c182611496565b9050919050565b6114d1816114b6565b81146114dc57600080fd5b50565b6000813590506114ee816114c8565b92915050565b60006020828403121561150a57611509611491565b5b6000611518848285016114df565b91505092915050565b6000819050919050565b61153481611521565b82525050565b600060208201905061154f600083018461152b565b92915050565b61155e816114b6565b82525050565b60006020820190506115796000830184611555565b92915050565b60007fffffffff0000000000000000000000000000000000000000000000000000000082169050919050565b6115b48161157f565b81146115bf57600080fd5b50565b6000813590506115d1816115ab565b92915050565b6000602082840312156115ed576115ec611491565b5b60006115fb848285016115c2565b91505092915050565b60008115159050919050565b61161981611604565b82525050565b60006020820190506116346000830184611610565b92915050565b61164381611521565b811461164e57600080fd5b50565b6000813590506116608161163a565b92915050565b60008060006060848603121561167f5761167e611491565b5b600061168d86828701611651565b935050602061169e86828701611651565b92505060406116af868287016114df565b9150509250925092565b6000819050919050565b6116cc816116b9565b81146116d757600080fd5b50565b6000813590506116e9816116c3565b92915050565b6000806040838503121561170657611705611491565b5b600061171485828601611651565b9250506020611725858286016116da565b9150509250929050565b6000604082019050611744600083018561152b565b611751602083018461152b565b9392505050565b60006020828403121561176e5761176d611491565b5b600061177c84828501611651565b91505092915050565b6000806000806080858703121561179f5761179e611491565b5b60006117ad87828801611651565b94505060206117be87828801611651565b93505060406117cf878288016114df565b92505060606117e087828801611651565b91505092959194509250565b6000806040838503121561180357611802611491565b5b600061181185828601611651565b9250506020611822858286016114df565b9150509250929050565b600081519050919050565b600082825260208201905092915050565b6000819050602082019050919050565b61186181611521565b82525050565b60006118738383611858565b60208301905092915050565b6000602082019050919050565b60006118978261182c565b6118a18185611837565b93506118ac83611848565b8060005b838110156118dd5781516118c48882611867565b97506118cf8361187f565b9250506001810190506118b0565b5085935050505092915050565b60006020820190508181036000830152611904818461188c565b905092915050565b611915816116b9565b82525050565b6000602082019050611930600083018461190c565b92915050565b60006040820190508181036000830152611950818561188c565b90508181036020830152611964818461188c565b90509392505050565b600082825260208201905092915050565b7f4944204d69736d61746368000000000000000000000000000000000000000000600082015250565b60006119b4600b8361196d565b91506119bf8261197e565b602082019050919050565b600060208201905081810360008301526119e3816119a7565b9050919050565b7f4e487b7100000000000000000000000000000000000000000000000000000000600052603260045260246000fd5b7f4e487b7100000000000000000000000000000000000000000000000000000000600052601160045260246000fd5b6000611a53826116b9565b9150611a5e836116b9565b9250828203905081811115611a7657611a75611a19565b5b92915050565b6000606082019050611a91600083018661152b565b611a9e602083018561152b565b611aab6040830184611555565b949350505050565b6000611abe826116b9565b91507fffffffffffffffffffffffffffffffffffffffffffffffffffffffffffffffff8203611af057611aef611a19565b5b600182019050919050565b7f5573657220616c726561647920686173206120526f6c65000000000000000000600082015250565b6000611b3160178361196d565b9150611b3c82611afb565b602082019050919050565b60006020820190508181036000830152611b6081611b24565b9050919050565b7f57726f6e6720486f73706974616c494400000000000000000000000000000000600082015250565b6000611b9d60108361196d565b9150611ba882611b67565b602082019050919050565b60006020820190508181036000830152611bcc81611b90565b9050919050565b6000611bde826116b9565b9150611be9836116b9565b9250828201905080821115611c0157611c00611a19565b5b92915050565b6000608082019050611c1c600083018761152b565b611c29602083018661152b565b611c366040830185611555565b611c43606083018461152b565b95945050505050565b7f416363657373436f6e74726f6c3a2063616e206f6e6c792072656e6f756e636560008201527f20726f6c657320666f722073656c660000000000000000000000000000000000602082015250565b6000611ca8602f8361196d565b9150611cb382611c4c565b604082019050919050565b60006020820190508181036000830152611cd781611c9b565b9050919050565b7f4e487b7100000000000000000000000000000000000000000000000000000000600052604160045260246000fd5b7f4f776e61626c653a206e6577206f776e657220697320746865207a65726f206160008201527f6464726573730000000000000000000000000000000000000000000000000000602082015250565b6000611d6960268361196d565b9150611d7482611d0d565b604082019050919050565b60006020820190508181036000830152611d9881611d5c565b9050919050565b7f4f776e61626c653a2063616c6c6572206973206e6f7420746865206f776e6572600082015250565b6000611dd560208361196d565b9150611de082611d9f565b602082019050919050565b60006020820190508181036000830152611e0481611dc8565b9050919050565b600081519050919050565b60005b83811015611e34578082015181840152602081019050611e19565b60008484015250505050565b6000601f19601f8301169050919050565b6000611e5c82611e0b565b611e66818561196d565b9350611e76818560208601611e16565b611e7f81611e40565b840191505092915050565b60006020820190508181036000830152611ea48184611e51565b90509291505056fea26469706673582212206fcdd21a1c6807a725828d83fa27bd786997e5e0cc86c73fccbc6d440bb19e1964736f6c63430008110033",
  "immutableReferences": {},
  "source": "// SPDX-License-Identifier: MIT\npragma solidity 0.8.17;\n\nimport \"./NeuromedAccess.sol\";\n\ncontract Hospital is NeuromedAccess{\n\n    event HospitalAdded(bytes32 hsId);\n\n    function addHospital(bytes32 _hospitalId)\n        public onlyRole(NM_ADMIN){\n        hopsital_ids.push(_hospitalId);\n        emit HospitalAdded(_hospitalId);\n    }\n\n    function getAllHospitals()public view returns(bytes32[] memory){\n        bytes32[] memory hs_id = new bytes32[](hopsital_ids.length);\n        for(uint x = 0; x < hopsital_ids.length; x++){\n            hs_id[x] = hopsital_ids[x];\n        }\n        return(hs_id);\n    }\n\n}",
  "sourcePath": "E:\\Web Development\\medicare\\medicare-admin-server\\truffle\\contracts\\Hospital.sol",
  "compiler": {
    "name": "solc",
    "version": "0.8.17+commit.8df45f5f.Emscripten.clang"
  },
  "schemaVersion": "3.4.10",
  "updatedAt": "2022-10-22T06:59:10.313Z",
  "devdoc": {
    "kind": "dev",
    "methods": {
      "getRoleAdmin(bytes32)": {
        "details": "Returns the admin role that controls `role`. See {grantRole} and {revokeRole}. To change a role's admin, use {_setRoleAdmin}."
      },
      "grantRole(bytes32,address)": {
        "details": "Grants `role` to `account`. If `account` had not been already granted `role`, emits a {RoleGranted} event. Requirements: - the caller must have ``role``'s admin role. May emit a {RoleGranted} event."
      },
      "hasRole(bytes32,address)": {
        "details": "Returns `true` if `account` has been granted `role`."
      },
      "owner()": {
        "details": "Returns the address of the current owner."
      },
      "renounceOwnership()": {
        "details": "Leaves the contract without owner. It will not be possible to call `onlyOwner` functions anymore. Can only be called by the current owner. NOTE: Renouncing ownership will leave the contract without an owner, thereby removing any functionality that is only available to the owner."
      },
      "renounceRole(bytes32,address)": {
        "details": "Revokes `role` from the calling account. Roles are often managed via {grantRole} and {revokeRole}: this function's purpose is to provide a mechanism for accounts to lose their privileges if they are compromised (such as when a trusted device is misplaced). If the calling account had been revoked `role`, emits a {RoleRevoked} event. Requirements: - the caller must be `account`. May emit a {RoleRevoked} event."
      },
      "revokeRole(bytes32,address)": {
        "details": "Revokes `role` from `account`. If `account` had been granted `role`, emits a {RoleRevoked} event. Requirements: - the caller must have ``role``'s admin role. May emit a {RoleRevoked} event."
      },
      "supportsInterface(bytes4)": {
        "details": "See {IERC165-supportsInterface}."
      },
      "transferOwnership(address)": {
        "details": "Transfers ownership of the contract to a new account (`newOwner`). Can only be called by the current owner."
      }
    },
    "version": 1
  },
  "userdoc": {
    "kind": "user",
    "methods": {},
    "version": 1
  }
}