{
  "contractName": "NeuromedTasks",
  "abi": [
    {
      "inputs": [],
      "stateMutability": "nonpayable",
      "type": "constructor"
    },
    {
      "anonymous": false,
      "inputs": [
        {
          "indexed": true,
          "internalType": "address",
          "name": "owner",
          "type": "address"
        },
        {
          "indexed": true,
          "internalType": "address",
          "name": "approved",
          "type": "address"
        },
        {
          "indexed": true,
          "internalType": "uint256",
          "name": "tokenId",
          "type": "uint256"
        }
      ],
      "name": "Approval",
      "type": "event"
    },
    {
      "anonymous": false,
      "inputs": [
        {
          "indexed": true,
          "internalType": "address",
          "name": "owner",
          "type": "address"
        },
        {
          "indexed": true,
          "internalType": "address",
          "name": "operator",
          "type": "address"
        },
        {
          "indexed": false,
          "internalType": "bool",
          "name": "approved",
          "type": "bool"
        }
      ],
      "name": "ApprovalForAll",
      "type": "event"
    },
    {
      "anonymous": false,
      "inputs": [
        {
          "indexed": false,
          "internalType": "bytes32",
          "name": "hsId",
          "type": "bytes32"
        }
      ],
      "name": "HospitalAdded",
      "type": "event"
    },
    {
      "anonymous": false,
      "inputs": [
        {
          "indexed": false,
          "internalType": "bytes32",
          "name": "lRepId",
          "type": "bytes32"
        },
        {
          "indexed": false,
          "internalType": "string",
          "name": "tokenURI",
          "type": "string"
        },
        {
          "indexed": false,
          "internalType": "bytes32",
          "name": "ptId",
          "type": "bytes32"
        }
      ],
      "name": "LabRepAdded",
      "type": "event"
    },
    {
      "anonymous": false,
      "inputs": [
        {
          "indexed": false,
          "internalType": "bytes32",
          "name": "mRecId",
          "type": "bytes32"
        },
        {
          "indexed": false,
          "internalType": "bool",
          "name": "isCritical",
          "type": "bool"
        },
        {
          "indexed": false,
          "internalType": "string",
          "name": "tokenURI",
          "type": "string"
        },
        {
          "indexed": false,
          "internalType": "bytes32",
          "name": "ptId",
          "type": "bytes32"
        }
      ],
      "name": "MedRecAdded",
      "type": "event"
    },
    {
      "anonymous": false,
      "inputs": [
        {
          "indexed": true,
          "internalType": "address",
          "name": "previousOwner",
          "type": "address"
        },
        {
          "indexed": true,
          "internalType": "address",
          "name": "newOwner",
          "type": "address"
        }
      ],
      "name": "OwnershipTransferred",
      "type": "event"
    },
    {
      "anonymous": false,
      "inputs": [
        {
          "indexed": false,
          "internalType": "bytes32",
          "name": "ptId",
          "type": "bytes32"
        },
        {
          "indexed": false,
          "internalType": "string",
          "name": "ptNic",
          "type": "string"
        },
        {
          "indexed": false,
          "internalType": "string",
          "name": "ptLink",
          "type": "string"
        }
      ],
      "name": "PatientAdded",
      "type": "event"
    },
    {
      "anonymous": false,
      "inputs": [
        {
          "indexed": true,
          "internalType": "bytes32",
          "name": "role",
          "type": "bytes32"
        },
        {
          "indexed": true,
          "internalType": "bytes32",
          "name": "previousAdminRole",
          "type": "bytes32"
        },
        {
          "indexed": true,
          "internalType": "bytes32",
          "name": "newAdminRole",
          "type": "bytes32"
        }
      ],
      "name": "RoleAdminChanged",
      "type": "event"
    },
    {
      "anonymous": false,
      "inputs": [
        {
          "indexed": true,
          "internalType": "bytes32",
          "name": "role",
          "type": "bytes32"
        },
        {
          "indexed": true,
          "internalType": "address",
          "name": "account",
          "type": "address"
        },
        {
          "indexed": true,
          "internalType": "address",
          "name": "sender",
          "type": "address"
        }
      ],
      "name": "RoleGranted",
      "type": "event"
    },
    {
      "anonymous": false,
      "inputs": [
        {
          "indexed": true,
          "internalType": "bytes32",
          "name": "role",
          "type": "bytes32"
        },
        {
          "indexed": true,
          "internalType": "address",
          "name": "account",
          "type": "address"
        },
        {
          "indexed": true,
          "internalType": "address",
          "name": "sender",
          "type": "address"
        }
      ],
      "name": "RoleRevoked",
      "type": "event"
    },
    {
      "anonymous": false,
      "inputs": [
        {
          "indexed": true,
          "internalType": "address",
          "name": "from",
          "type": "address"
        },
        {
          "indexed": true,
          "internalType": "address",
          "name": "to",
          "type": "address"
        },
        {
          "indexed": true,
          "internalType": "uint256",
          "name": "tokenId",
          "type": "uint256"
        }
      ],
      "name": "Transfer",
      "type": "event"
    },
    {
      "anonymous": false,
      "inputs": [
        {
          "indexed": false,
          "internalType": "bytes32",
          "name": "userId",
          "type": "bytes32"
        },
        {
          "indexed": false,
          "internalType": "bytes32",
          "name": "userRole",
          "type": "bytes32"
        },
        {
          "indexed": false,
          "internalType": "address",
          "name": "userAdd",
          "type": "address"
        },
        {
          "indexed": false,
          "internalType": "bytes32",
          "name": "userHs",
          "type": "bytes32"
        }
      ],
      "name": "UserAdded",
      "type": "event"
    },
    {
      "anonymous": false,
      "inputs": [
        {
          "indexed": false,
          "internalType": "bytes32",
          "name": "userId",
          "type": "bytes32"
        },
        {
          "indexed": false,
          "internalType": "bytes32",
          "name": "userRole",
          "type": "bytes32"
        },
        {
          "indexed": false,
          "internalType": "address",
          "name": "userAdd",
          "type": "address"
        }
      ],
      "name": "UserRemoved",
      "type": "event"
    },
    {
      "inputs": [],
      "name": "DEFAULT_ADMIN_ROLE",
      "outputs": [
        {
          "internalType": "bytes32",
          "name": "",
          "type": "bytes32"
        }
      ],
      "stateMutability": "view",
      "type": "function"
    },
    {
      "inputs": [],
      "name": "DOCTOR",
      "outputs": [
        {
          "internalType": "bytes32",
          "name": "",
          "type": "bytes32"
        }
      ],
      "stateMutability": "view",
      "type": "function"
    },
    {
      "inputs": [],
      "name": "HS_ADMIN",
      "outputs": [
        {
          "internalType": "bytes32",
          "name": "",
          "type": "bytes32"
        }
      ],
      "stateMutability": "view",
      "type": "function"
    },
    {
      "inputs": [],
      "name": "LAB_ASST",
      "outputs": [
        {
          "internalType": "bytes32",
          "name": "",
          "type": "bytes32"
        }
      ],
      "stateMutability": "view",
      "type": "function"
    },
    {
      "inputs": [],
      "name": "MREP",
      "outputs": [
        {
          "internalType": "bytes32",
          "name": "",
          "type": "bytes32"
        }
      ],
      "stateMutability": "view",
      "type": "function"
    },
    {
      "inputs": [],
      "name": "NM_ADMIN",
      "outputs": [
        {
          "internalType": "bytes32",
          "name": "",
          "type": "bytes32"
        }
      ],
      "stateMutability": "view",
      "type": "function"
    },
    {
      "inputs": [],
      "name": "NO_HS",
      "outputs": [
        {
          "internalType": "bytes32",
          "name": "",
          "type": "bytes32"
        }
      ],
      "stateMutability": "view",
      "type": "function"
    },
    {
      "inputs": [
        {
          "internalType": "bytes32",
          "name": "_hospitalId",
          "type": "bytes32"
        }
      ],
      "name": "addHospital",
      "outputs": [],
      "stateMutability": "nonpayable",
      "type": "function"
    },
    {
      "inputs": [
        {
          "internalType": "bytes32",
          "name": "_id",
          "type": "bytes32"
        },
        {
          "internalType": "bytes32",
          "name": "_addingUser",
          "type": "bytes32"
        },
        {
          "internalType": "address",
          "name": "_address",
          "type": "address"
        },
        {
          "internalType": "bytes32",
          "name": "_hospitalId",
          "type": "bytes32"
        }
      ],
      "name": "addUser",
      "outputs": [],
      "stateMutability": "nonpayable",
      "type": "function"
    },
    {
      "inputs": [
        {
          "internalType": "address",
          "name": "to",
          "type": "address"
        },
        {
          "internalType": "uint256",
          "name": "tokenId",
          "type": "uint256"
        }
      ],
      "name": "approve",
      "outputs": [],
      "stateMutability": "nonpayable",
      "type": "function"
    },
    {
      "inputs": [
        {
          "internalType": "address",
          "name": "owner",
          "type": "address"
        }
      ],
      "name": "balanceOf",
      "outputs": [
        {
          "internalType": "uint256",
          "name": "",
          "type": "uint256"
        }
      ],
      "stateMutability": "view",
      "type": "function"
    },
    {
      "inputs": [],
      "name": "getAllHospitals",
      "outputs": [
        {
          "internalType": "bytes32[]",
          "name": "",
          "type": "bytes32[]"
        }
      ],
      "stateMutability": "view",
      "type": "function"
    },
    {
      "inputs": [],
      "name": "getAllUsers",
      "outputs": [
        {
          "internalType": "bytes32[]",
          "name": "",
          "type": "bytes32[]"
        },
        {
          "internalType": "bytes32[]",
          "name": "",
          "type": "bytes32[]"
        }
      ],
      "stateMutability": "view",
      "type": "function"
    },
    {
      "inputs": [
        {
          "internalType": "uint256",
          "name": "tokenId",
          "type": "uint256"
        }
      ],
      "name": "getApproved",
      "outputs": [
        {
          "internalType": "address",
          "name": "",
          "type": "address"
        }
      ],
      "stateMutability": "view",
      "type": "function"
    },
    {
      "inputs": [
        {
          "internalType": "bytes32",
          "name": "role",
          "type": "bytes32"
        }
      ],
      "name": "getRoleAdmin",
      "outputs": [
        {
          "internalType": "bytes32",
          "name": "",
          "type": "bytes32"
        }
      ],
      "stateMutability": "view",
      "type": "function"
    },
    {
      "inputs": [
        {
          "internalType": "bytes32",
          "name": "role",
          "type": "bytes32"
        },
        {
          "internalType": "address",
          "name": "account",
          "type": "address"
        }
      ],
      "name": "grantRole",
      "outputs": [],
      "stateMutability": "nonpayable",
      "type": "function"
    },
    {
      "inputs": [
        {
          "internalType": "bytes32",
          "name": "role",
          "type": "bytes32"
        },
        {
          "internalType": "address",
          "name": "account",
          "type": "address"
        }
      ],
      "name": "hasRole",
      "outputs": [
        {
          "internalType": "bool",
          "name": "",
          "type": "bool"
        }
      ],
      "stateMutability": "view",
      "type": "function"
    },
    {
      "inputs": [
        {
          "internalType": "address",
          "name": "owner",
          "type": "address"
        },
        {
          "internalType": "address",
          "name": "operator",
          "type": "address"
        }
      ],
      "name": "isApprovedForAll",
      "outputs": [
        {
          "internalType": "bool",
          "name": "",
          "type": "bool"
        }
      ],
      "stateMutability": "view",
      "type": "function"
    },
    {
      "inputs": [],
      "name": "name",
      "outputs": [
        {
          "internalType": "string",
          "name": "",
          "type": "string"
        }
      ],
      "stateMutability": "view",
      "type": "function"
    },
    {
      "inputs": [],
      "name": "owner",
      "outputs": [
        {
          "internalType": "address",
          "name": "",
          "type": "address"
        }
      ],
      "stateMutability": "view",
      "type": "function"
    },
    {
      "inputs": [
        {
          "internalType": "uint256",
          "name": "tokenId",
          "type": "uint256"
        }
      ],
      "name": "ownerOf",
      "outputs": [
        {
          "internalType": "address",
          "name": "",
          "type": "address"
        }
      ],
      "stateMutability": "view",
      "type": "function"
    },
    {
      "inputs": [
        {
          "internalType": "bytes32",
          "name": "_id",
          "type": "bytes32"
        },
        {
          "internalType": "bytes32",
          "name": "_removingUser",
          "type": "bytes32"
        },
        {
          "internalType": "address",
          "name": "_address",
          "type": "address"
        }
      ],
      "name": "removeUser",
      "outputs": [],
      "stateMutability": "nonpayable",
      "type": "function"
    },
    {
      "inputs": [],
      "name": "renounceOwnership",
      "outputs": [],
      "stateMutability": "nonpayable",
      "type": "function"
    },
    {
      "inputs": [
        {
          "internalType": "bytes32",
          "name": "role",
          "type": "bytes32"
        },
        {
          "internalType": "address",
          "name": "account",
          "type": "address"
        }
      ],
      "name": "renounceRole",
      "outputs": [],
      "stateMutability": "nonpayable",
      "type": "function"
    },
    {
      "inputs": [
        {
          "internalType": "bytes32",
          "name": "role",
          "type": "bytes32"
        },
        {
          "internalType": "address",
          "name": "account",
          "type": "address"
        }
      ],
      "name": "revokeRole",
      "outputs": [],
      "stateMutability": "nonpayable",
      "type": "function"
    },
    {
      "inputs": [
        {
          "internalType": "address",
          "name": "",
          "type": "address"
        }
      ],
      "name": "roleOfUser",
      "outputs": [
        {
          "internalType": "bytes32",
          "name": "",
          "type": "bytes32"
        }
      ],
      "stateMutability": "view",
      "type": "function"
    },
    {
      "inputs": [
        {
          "internalType": "address",
          "name": "from",
          "type": "address"
        },
        {
          "internalType": "address",
          "name": "to",
          "type": "address"
        },
        {
          "internalType": "uint256",
          "name": "tokenId",
          "type": "uint256"
        }
      ],
      "name": "safeTransferFrom",
      "outputs": [],
      "stateMutability": "nonpayable",
      "type": "function"
    },
    {
      "inputs": [
        {
          "internalType": "address",
          "name": "from",
          "type": "address"
        },
        {
          "internalType": "address",
          "name": "to",
          "type": "address"
        },
        {
          "internalType": "uint256",
          "name": "tokenId",
          "type": "uint256"
        },
        {
          "internalType": "bytes",
          "name": "data",
          "type": "bytes"
        }
      ],
      "name": "safeTransferFrom",
      "outputs": [],
      "stateMutability": "nonpayable",
      "type": "function"
    },
    {
      "inputs": [],
      "name": "seeOwner",
      "outputs": [
        {
          "internalType": "address",
          "name": "",
          "type": "address"
        }
      ],
      "stateMutability": "view",
      "type": "function"
    },
    {
      "inputs": [
        {
          "internalType": "address",
          "name": "operator",
          "type": "address"
        },
        {
          "internalType": "bool",
          "name": "approved",
          "type": "bool"
        }
      ],
      "name": "setApprovalForAll",
      "outputs": [],
      "stateMutability": "nonpayable",
      "type": "function"
    },
    {
      "inputs": [],
      "name": "symbol",
      "outputs": [
        {
          "internalType": "string",
          "name": "",
          "type": "string"
        }
      ],
      "stateMutability": "view",
      "type": "function"
    },
    {
      "inputs": [
        {
          "internalType": "uint256",
          "name": "tokenId",
          "type": "uint256"
        }
      ],
      "name": "tokenURI",
      "outputs": [
        {
          "internalType": "string",
          "name": "",
          "type": "string"
        }
      ],
      "stateMutability": "view",
      "type": "function"
    },
    {
      "inputs": [
        {
          "internalType": "address",
          "name": "from",
          "type": "address"
        },
        {
          "internalType": "address",
          "name": "to",
          "type": "address"
        },
        {
          "internalType": "uint256",
          "name": "tokenId",
          "type": "uint256"
        }
      ],
      "name": "transferFrom",
      "outputs": [],
      "stateMutability": "nonpayable",
      "type": "function"
    },
    {
      "inputs": [
        {
          "internalType": "address",
          "name": "newOwner",
          "type": "address"
        }
      ],
      "name": "transferOwnership",
      "outputs": [],
      "stateMutability": "nonpayable",
      "type": "function"
    },
    {
      "inputs": [
        {
          "internalType": "bytes32",
          "name": "",
          "type": "bytes32"
        }
      ],
      "name": "userCountRole",
      "outputs": [
        {
          "internalType": "uint256",
          "name": "",
          "type": "uint256"
        }
      ],
      "stateMutability": "view",
      "type": "function"
    },
    {
      "inputs": [
        {
          "internalType": "bytes32",
          "name": "",
          "type": "bytes32"
        },
        {
          "internalType": "uint256",
          "name": "",
          "type": "uint256"
        }
      ],
      "name": "usersForARole",
      "outputs": [
        {
          "internalType": "bytes32",
          "name": "id",
          "type": "bytes32"
        },
        {
          "internalType": "bytes32",
          "name": "urole",
          "type": "bytes32"
        }
      ],
      "stateMutability": "view",
      "type": "function"
    },
    {
      "inputs": [
        {
          "internalType": "bytes32",
          "name": "_ptId",
          "type": "bytes32"
        },
        {
          "internalType": "string",
          "name": "_ptNic",
          "type": "string"
        },
        {
          "internalType": "string",
          "name": "_tokenURI",
          "type": "string"
        }
      ],
      "name": "registerPatient",
      "outputs": [],
      "stateMutability": "nonpayable",
      "type": "function"
    },
    {
      "inputs": [
        {
          "internalType": "bytes32",
          "name": "_mRecId",
          "type": "bytes32"
        },
        {
          "internalType": "bool",
          "name": "_isCritical",
          "type": "bool"
        },
        {
          "internalType": "string",
          "name": "_tokenURI",
          "type": "string"
        },
        {
          "internalType": "bytes32",
          "name": "_ptId",
          "type": "bytes32"
        }
      ],
      "name": "addMedicalrecord",
      "outputs": [],
      "stateMutability": "nonpayable",
      "type": "function"
    },
    {
      "inputs": [
        {
          "internalType": "bytes32",
          "name": "_lRepId",
          "type": "bytes32"
        },
        {
          "internalType": "string",
          "name": "_tokenURI",
          "type": "string"
        },
        {
          "internalType": "bytes32",
          "name": "_ptId",
          "type": "bytes32"
        }
      ],
      "name": "addLabReport",
      "outputs": [],
      "stateMutability": "nonpayable",
      "type": "function"
    },
    {
      "inputs": [
        {
          "internalType": "bytes32",
          "name": "_ptId",
          "type": "bytes32"
        }
      ],
      "name": "getPatientURI",
      "outputs": [
        {
          "internalType": "string",
          "name": "",
          "type": "string"
        }
      ],
      "stateMutability": "view",
      "type": "function"
    },
    {
      "inputs": [
        {
          "internalType": "bytes32",
          "name": "_ptId",
          "type": "bytes32"
        }
      ],
      "name": "getMedRecsForPatient",
      "outputs": [
        {
          "internalType": "string[]",
          "name": "",
          "type": "string[]"
        },
        {
          "internalType": "bool[]",
          "name": "",
          "type": "bool[]"
        }
      ],
      "stateMutability": "view",
      "type": "function"
    },
    {
      "inputs": [
        {
          "internalType": "bytes32",
          "name": "_ptId",
          "type": "bytes32"
        }
      ],
      "name": "getLabRepsForPatient",
      "outputs": [
        {
          "internalType": "string[]",
          "name": "",
          "type": "string[]"
        }
      ],
      "stateMutability": "view",
      "type": "function"
    },
    {
      "inputs": [
        {
          "internalType": "bytes4",
          "name": "interfaceId",
          "type": "bytes4"
        }
      ],
      "name": "supportsInterface",
      "outputs": [
        {
          "internalType": "bool",
          "name": "",
          "type": "bool"
        }
      ],
      "stateMutability": "view",
      "type": "function"
    }
  ],
  "bytecode": "0x60806040526000801b6009557f39349db958ca58bbd5da126bd654d05d8d0c93f86805918f236dc076194e195560001b600a553480156200003f57600080fd5b506040518060400160405280600b81526020017f4e4d5f436f6e74726163740000000000000000000000000000000000000000008152506040518060400160405280600381526020017f4e4d430000000000000000000000000000000000000000000000000000000000815250620000cc620000c06200028a60201b60201c565b6200029260201b60201c565b8160019081620000dd9190620007b1565b508060029081620000ef9190620007b1565b505050620001076000801b336200035660201b60201c565b6200013c7fc853308605851716aebf9b8085de39c1c4ef8de095a393b3a950e2fb1686bf836000801b6200044860201b60201c565b6200018e7f8422142255c844d3d4a5104b709d1da65e3e4b88bc607f47279dd1baf7acc8087fc853308605851716aebf9b8085de39c1c4ef8de095a393b3a950e2fb1686bf836200044860201b60201c565b620001e07fc2af34e7cc1f3d8808f569d6d46a95c4217b618edefc26d793e3a6c23dfe262f7fc853308605851716aebf9b8085de39c1c4ef8de095a393b3a950e2fb1686bf836200044860201b60201c565b620002327fc9c8e67a61d2e7371df46522b44051b955c16bf4b713ef44e1373b25bfcd80b27fc853308605851716aebf9b8085de39c1c4ef8de095a393b3a950e2fb1686bf836200044860201b60201c565b620002847ffff7b8e4ac10566d090c9cdfc71d80fcc431b76ce09edaddaa421288a053208a7f8422142255c844d3d4a5104b709d1da65e3e4b88bc607f47279dd1baf7acc8086200044860201b60201c565b62000898565b600033905090565b60008060009054906101000a900473ffffffffffffffffffffffffffffffffffffffff169050816000806101000a81548173ffffffffffffffffffffffffffffffffffffffff021916908373ffffffffffffffffffffffffffffffffffffffff1602179055508173ffffffffffffffffffffffffffffffffffffffff168173ffffffffffffffffffffffffffffffffffffffff167f8be0079c531659141344cd1fd0a4f28419497f9722a3daafe3b4186f6b6457e060405160405180910390a35050565b620003688282620004ac60201b60201c565b620004445760016008600084815260200190815260200160002060000160008373ffffffffffffffffffffffffffffffffffffffff1673ffffffffffffffffffffffffffffffffffffffff16815260200190815260200160002060006101000a81548160ff021916908315150217905550620003e96200028a60201b60201c565b73ffffffffffffffffffffffffffffffffffffffff168173ffffffffffffffffffffffffffffffffffffffff16837f2f8788117e7eff1d82e926ec794901d17c78024a50270940304540a733656f0d60405160405180910390a45b5050565b60006200045b836200051760201b60201c565b90508160086000858152602001908152602001600020600101819055508181847fbd79b86ffe0ab8e8776151514217cd7cacd52c909f66475c3af44e129f0b00ff60405160405180910390a4505050565b60006008600084815260200190815260200160002060000160008373ffffffffffffffffffffffffffffffffffffffff1673ffffffffffffffffffffffffffffffffffffffff16815260200190815260200160002060009054906101000a900460ff16905092915050565b600060086000838152602001908152602001600020600101549050919050565b600081519050919050565b7f4e487b7100000000000000000000000000000000000000000000000000000000600052604160045260246000fd5b7f4e487b7100000000000000000000000000000000000000000000000000000000600052602260045260246000fd5b60006002820490506001821680620005b957607f821691505b602082108103620005cf57620005ce62000571565b5b50919050565b60008190508160005260206000209050919050565b60006020601f8301049050919050565b600082821b905092915050565b600060088302620006397fffffffffffffffffffffffffffffffffffffffffffffffffffffffffffffffff82620005fa565b620006458683620005fa565b95508019841693508086168417925050509392505050565b6000819050919050565b6000819050919050565b6000620006926200068c62000686846200065d565b62000667565b6200065d565b9050919050565b6000819050919050565b620006ae8362000671565b620006c6620006bd8262000699565b84845462000607565b825550505050565b600090565b620006dd620006ce565b620006ea818484620006a3565b505050565b5b81811015620007125762000706600082620006d3565b600181019050620006f0565b5050565b601f82111562000761576200072b81620005d5565b6200073684620005ea565b8101602085101562000746578190505b6200075e6200075585620005ea565b830182620006ef565b50505b505050565b600082821c905092915050565b6000620007866000198460080262000766565b1980831691505092915050565b6000620007a1838362000773565b9150826002028217905092915050565b620007bc8262000537565b67ffffffffffffffff811115620007d857620007d762000542565b5b620007e48254620005a0565b620007f182828562000716565b600060209050601f83116001811462000829576000841562000814578287015190505b62000820858262000793565b86555062000890565b601f1984166200083986620005d5565b60005b8281101562000863578489015182556001820191506020850194506020810190506200083c565b868310156200088357848901516200087f601f89168262000773565b8355505b6001600288020188555050505b505050505050565b61510a80620008a86000396000f3fe608060405234801561001057600080fd5b50600436106102685760003560e01c80636352211e11610151578063b091b3a3116100c3578063e2842d7911610087578063e2842d791461076f578063e41a9d551461078e578063e985e9c5146107ac578063e9f1d840146107dc578063f2fde38b1461080c578063fbfab7631461082857610268565b8063b091b3a3146106cb578063b21e20eb146106e9578063b88d4fde14610707578063c87b56dd14610723578063d547741f1461075357610268565b80638e391680116101155780638e391680146105f757806390c2ef6e1461062757806391d148541461064357806395d89b4114610673578063a217fddf14610691578063a22cb465146106af57610268565b80636352211e14610551578063695d59b51461058157806370a082311461059f578063715018a6146105cf5780638da5cb5b146105d957610268565b806323b872dd116101ea5780632f2ff15d116101ae5780632f2ff15d1461049057806332676d9c146104ac57806336568abe146104dd57806342842e0e146104f95780634e9f715414610515578063524fda901461053357610268565b806323b872dd146103ee578063248a9ca31461040a578063288ccb301461043a5780632edd865a146104565780632efbdf821461047257610268565b8063081812fc11610231578063081812fc14610325578063095ea7b3146103555780631846027c14610371578063200527d5146103a2578063222da0e7146103d257610268565b80623045681461026d57806301a44eff1461029d57806301ffc9a7146102bb57806304f162c3146102eb57806306fdde0314610307575b600080fd5b61028760048036038101906102829190613425565b610844565b604051610294919061346b565b60405180910390f35b6102a561085c565b6040516102b29190613495565b60405180910390f35b6102d560048036038101906102d09190613508565b610864565b6040516102e29190613550565b60405180910390f35b61030560048036038101906103009190613597565b610876565b005b61030f610a8a565b60405161031c919061367a565b60405180910390f35b61033f600480360381019061033a91906136d2565b610b1c565b60405161034c9190613495565b60405180910390f35b61036f600480360381019061036a91906136ff565b610b62565b005b61038b6004803603810190610386919061373f565b610c79565b60405161039992919061377f565b60405180910390f35b6103bc60048036038101906103b791906137a8565b610cba565b6040516103c9919061367a565b60405180910390f35b6103ec60048036038101906103e7919061390a565b610d0a565b005b61040860048036038101906104039190613979565b610e3f565b005b610424600480360381019061041f91906137a8565b610e9f565b604051610431919061346b565b60405180910390f35b610454600480360381019061044f91906139cc565b610ebf565b005b610470600480360381019061046b9190613a57565b610fc9565b005b61047a611292565b604051610487919061346b565b60405180910390f35b6104aa60048036038101906104a59190613abe565b6112b6565b005b6104c660048036038101906104c191906137a8565b6112d7565b6040516104d4929190613cc8565b60405180910390f35b6104f760048036038101906104f29190613abe565b611508565b005b610513600480360381019061050e9190613979565b61158b565b005b61051d6115ab565b60405161052a9190613dbd565b60405180910390f35b61053b611668565b604051610548919061346b565b60405180910390f35b61056b600480360381019061056691906136d2565b61168c565b6040516105789190613495565b60405180910390f35b61058961173d565b604051610596919061346b565b60405180910390f35b6105b960048036038101906105b49190613425565b611761565b6040516105c69190613dee565b60405180910390f35b6105d7611818565b005b6105e161182c565b6040516105ee9190613495565b60405180910390f35b610611600480360381019061060c91906137a8565b611855565b60405161061e9190613dee565b60405180910390f35b610641600480360381019061063c91906137a8565b61186d565b005b61065d60048036038101906106589190613abe565b6118fb565b60405161066a9190613550565b60405180910390f35b61067b611966565b604051610688919061367a565b60405180910390f35b6106996119f8565b6040516106a6919061346b565b60405180910390f35b6106c960048036038101906106c49190613e35565b6119ff565b005b6106d3611a15565b6040516106e0919061346b565b60405180910390f35b6106f1611a39565b6040516106fe919061346b565b60405180910390f35b610721600480360381019061071c9190613f16565b611a3f565b005b61073d600480360381019061073891906136d2565b611aa1565b60405161074a919061367a565b60405180910390f35b61076d60048036038101906107689190613abe565b611bb3565b005b610777611bd4565b604051610785929190613f99565b60405180910390f35b610796611d35565b6040516107a3919061346b565b60405180910390f35b6107c660048036038101906107c19190613fd0565b611d59565b6040516107d39190613550565b60405180910390f35b6107f660048036038101906107f191906137a8565b611ded565b6040516108039190614010565b60405180910390f35b61082660048036038101906108219190613425565b611f68565b005b610842600480360381019061083d9190614032565b611feb565b005b600b6020528060005260406000206000915090505481565b600033905090565b600061086f82612173565b9050919050565b82600d60008373ffffffffffffffffffffffffffffffffffffffff1673ffffffffffffffffffffffffffffffffffffffff16815260200190815260200160002060000154146108fa576040517f08c379a00000000000000000000000000000000000000000000000000000000081526004016108f190614101565b60405180910390fd5b60005b600c80549050811015610a845783600c828154811061091f5761091e614121565b5b90600052602060002090600202016000015403610a7157600c818154811061094a57610949614121565b5b906000526020600020906002020160008082016000905560018201600090555050600d60008373ffffffffffffffffffffffffffffffffffffffff1673ffffffffffffffffffffffffffffffffffffffff16815260200190815260200160002060008082016000905560018201600090555050600b60008373ffffffffffffffffffffffffffffffffffffffff1673ffffffffffffffffffffffffffffffffffffffff16815260200190815260200160002060009055610a0a8383611bb3565b6001600e60008581526020019081526020016000206000828254610a2e919061417f565b925050819055507f29b7effafd8766b71f8b02ac5b6178267f0008e511d45c73f9cad93ae2eed706848484604051610a68939291906141b3565b60405180910390a15b8080610a7c906141ea565b9150506108fd565b50505050565b606060018054610a9990614261565b80601f0160208091040260200160405190810160405280929190818152602001828054610ac590614261565b8015610b125780601f10610ae757610100808354040283529160200191610b12565b820191906000526020600020905b815481529060010190602001808311610af557829003601f168201915b5050505050905090565b6000610b27826121ed565b6005600083815260200190815260200160002060009054906101000a900473ffffffffffffffffffffffffffffffffffffffff169050919050565b6000610b6d8261168c565b90508073ffffffffffffffffffffffffffffffffffffffff168373ffffffffffffffffffffffffffffffffffffffff1603610bdd576040517f08c379a0000000000000000000000000000000000000000000000000000000008152600401610bd490614304565b60405180910390fd5b8073ffffffffffffffffffffffffffffffffffffffff16610bfc612238565b73ffffffffffffffffffffffffffffffffffffffff161480610c2b5750610c2a81610c25612238565b611d59565b5b610c6a576040517f08c379a0000000000000000000000000000000000000000000000000000000008152600401610c6190614396565b60405180910390fd5b610c748383612240565b505050565b600f6020528160005260406000208181548110610c9557600080fd5b9060005260206000209060020201600091509150508060000154908060010154905082565b60607fc9c8e67a61d2e7371df46522b44051b955c16bf4b713ef44e1373b25bfcd80b2610ce6816122f9565b610d026014600085815260200190815260200160002054611aa1565b915050919050565b7ffff7b8e4ac10566d090c9cdfc71d80fcc431b76ce09edaddaa421288a053208a610d34816122f9565b60006040518060200160405280868152509050610d51601561230d565b6000610d5d6015612323565b905080601a60008881526020019081526020016000208190555060198290806001815401808255809150506001900390600052602060002001600090919091909150600082015181600001555050610db6813387612331565b50601b600085815260200190815260200160002082908060018154018082558091505060019003906000526020600020016000909190919091506000820151816000015550507f17e983654c1edb901c72e74b844b040982bfcde9e8e68317525c2016047ff116868686604051610e2f939291906143b6565b60405180910390a1505050505050565b610e50610e4a612238565b82612351565b610e8f576040517f08c379a0000000000000000000000000000000000000000000000000000000008152600401610e8690614466565b60405180910390fd5b610e9a8383836123e6565b505050565b600060086000838152602001908152602001600020600101549050919050565b7fc2af34e7cc1f3d8808f569d6d46a95c4217b618edefc26d793e3a6c23dfe262f610ee9816122f9565b610ef3601561230d565b6000610eff6015612323565b905080601460008781526020019081526020016000208190555060136040518060400160405280878152602001868152509080600181540180825580915050600190039060005260206000209060020201600090919091909150600082015181600001556020820151816001019081610f789190614632565b505050610f86813385612331565b507f9037e6572a169ea37c3685b717d743b320ea4c50a051623982165201536e0730858585604051610fba93929190614704565b60405180910390a15050505050565b600954600b60008473ffffffffffffffffffffffffffffffffffffffff1673ffffffffffffffffffffffffffffffffffffffff168152602001908152602001600020541461104c576040517f08c379a000000000000000000000000000000000000000000000000000000000815260040161104390614795565b60405180910390fd5b600a5481146111235761105e8161264c565b61109d576040517f08c379a000000000000000000000000000000000000000000000000000000000815260040161109490614801565b60405180910390fd5b7f8422142255c844d3d4a5104b709d1da65e3e4b88bc607f47279dd1baf7acc80883036110e157806011600086815260200190815260200160002081905550611122565b7ffff7b8e4ac10566d090c9cdfc71d80fcc431b76ce09edaddaa421288a053208a8303611121578060126000868152602001908152602001600020819055505b5b5b60006040518060400160405280868152602001858152509050600c8190806001815401808255809150506001900390600052602060002090600202016000909190919091506000820151816000015560208201518160010155505080600d60008573ffffffffffffffffffffffffffffffffffffffff1673ffffffffffffffffffffffffffffffffffffffff16815260200190815260200160002060008201518160000155602082015181600101559050506111df84846112b6565b83600b60008573ffffffffffffffffffffffffffffffffffffffff1673ffffffffffffffffffffffffffffffffffffffff168152602001908152602001600020819055506001600e600086815260200190815260200160002060008282546112479190614821565b925050819055507fb44122948ed009a8c34bf0c6f2b114d851979eb80b52f0e129e408036b7952a5858585856040516112839493929190614855565b60405180910390a15050505050565b7fc9c8e67a61d2e7371df46522b44051b955c16bf4b713ef44e1373b25bfcd80b281565b6112bf82610e9f565b6112c8816122f9565b6112d283836126d1565b505050565b6060807fc9c8e67a61d2e7371df46522b44051b955c16bf4b713ef44e1373b25bfcd80b2611304816122f9565b600060186000868152602001908152602001600020805480602002602001604051908101604052809291908181526020016000905b828210156113905783829060005260206000209060020201604051806040016040529081600082015481526020016001820160009054906101000a900460ff16151515158152505081526020019060010190611339565b5050505090506000815167ffffffffffffffff8111156113b3576113b26137df565b5b6040519080825280602002602001820160405280156113e657816020015b60608152602001906001900390816113d15790505b5090506000825167ffffffffffffffff811115611406576114056137df565b5b6040519080825280602002602001820160405280156114345781602001602082028036833780820191505090505b50905060005b83518110156114f85760006017600086848151811061145c5761145b614121565b5b602002602001015160000151815260200190815260200160002054905061148281611aa1565b84838151811061149557611494614121565b5b60200260200101819052508482815181106114b3576114b2614121565b5b6020026020010151602001518383815181106114d2576114d1614121565b5b6020026020010190151590811515815250505080806114f0906141ea565b91505061143a565b5081819550955050505050915091565b611510612238565b73ffffffffffffffffffffffffffffffffffffffff168173ffffffffffffffffffffffffffffffffffffffff161461157d576040517f08c379a00000000000000000000000000000000000000000000000000000000081526004016115749061490c565b60405180910390fd5b61158782826127b2565b5050565b6115a683838360405180602001604052806000815250611a3f565b505050565b6060600060108054905067ffffffffffffffff8111156115ce576115cd6137df565b5b6040519080825280602002602001820160405280156115fc5781602001602082028036833780820191505090505b50905060005b601080549050811015611660576010818154811061162357611622614121565b5b906000526020600020015482828151811061164157611640614121565b5b6020026020010181815250508080611658906141ea565b915050611602565b508091505090565b7ffff7b8e4ac10566d090c9cdfc71d80fcc431b76ce09edaddaa421288a053208a81565b6000806003600084815260200190815260200160002060009054906101000a900473ffffffffffffffffffffffffffffffffffffffff169050600073ffffffffffffffffffffffffffffffffffffffff168173ffffffffffffffffffffffffffffffffffffffff1603611734576040517f08c379a000000000000000000000000000000000000000000000000000000000815260040161172b90614978565b60405180910390fd5b80915050919050565b7fc2af34e7cc1f3d8808f569d6d46a95c4217b618edefc26d793e3a6c23dfe262f81565b60008073ffffffffffffffffffffffffffffffffffffffff168273ffffffffffffffffffffffffffffffffffffffff16036117d1576040517f08c379a00000000000000000000000000000000000000000000000000000000081526004016117c890614a0a565b60405180910390fd5b600460008373ffffffffffffffffffffffffffffffffffffffff1673ffffffffffffffffffffffffffffffffffffffff168152602001908152602001600020549050919050565b611820612894565b61182a6000612912565b565b60008060009054906101000a900473ffffffffffffffffffffffffffffffffffffffff16905090565b600e6020528060005260406000206000915090505481565b7fc853308605851716aebf9b8085de39c1c4ef8de095a393b3a950e2fb1686bf83611897816122f9565b60108290806001815401808255809150506001900390600052602060002001600090919091909150557f1894c05770e5b3b9dd2f4d14f23344ab05dea017607150d7ba80bc9343a7e9de826040516118ef919061346b565b60405180910390a15050565b60006008600084815260200190815260200160002060000160008373ffffffffffffffffffffffffffffffffffffffff1673ffffffffffffffffffffffffffffffffffffffff16815260200190815260200160002060009054906101000a900460ff16905092915050565b60606002805461197590614261565b80601f01602080910402602001604051908101604052809291908181526020018280546119a190614261565b80156119ee5780601f106119c3576101008083540402835291602001916119ee565b820191906000526020600020905b8154815290600101906020018083116119d157829003601f168201915b5050505050905090565b6000801b81565b611a11611a0a612238565b83836129d6565b5050565b7fc853308605851716aebf9b8085de39c1c4ef8de095a393b3a950e2fb1686bf8381565b600a5481565b611a50611a4a612238565b83612351565b611a8f576040517f08c379a0000000000000000000000000000000000000000000000000000000008152600401611a8690614466565b60405180910390fd5b611a9b84848484612b42565b50505050565b6060611aac826121ed565b6000600760008481526020019081526020016000208054611acc90614261565b80601f0160208091040260200160405190810160405280929190818152602001828054611af890614261565b8015611b455780601f10611b1a57610100808354040283529160200191611b45565b820191906000526020600020905b815481529060010190602001808311611b2857829003601f168201915b505050505090506000611b56612b9e565b90506000815103611b6b578192505050611bae565b600082511115611ba0578082604051602001611b88929190614a66565b60405160208183030381529060405292505050611bae565b611ba984612bb5565b925050505b919050565b611bbc82610e9f565b611bc5816122f9565b611bcf83836127b2565b505050565b6060806000600c8054905067ffffffffffffffff811115611bf857611bf76137df565b5b604051908082528060200260200182016040528015611c265781602001602082028036833780820191505090505b5090506000600c8054905067ffffffffffffffff811115611c4a57611c496137df565b5b604051908082528060200260200182016040528015611c785781602001602082028036833780820191505090505b50905060005b600c80549050811015611d2857600c8181548110611c9f57611c9e614121565b5b906000526020600020906002020160000154838281518110611cc457611cc3614121565b5b602002602001018181525050600c8181548110611ce457611ce3614121565b5b906000526020600020906002020160010154828281518110611d0957611d08614121565b5b6020026020010181815250508080611d20906141ea565b915050611c7e565b5081819350935050509091565b7f8422142255c844d3d4a5104b709d1da65e3e4b88bc607f47279dd1baf7acc80881565b6000600660008473ffffffffffffffffffffffffffffffffffffffff1673ffffffffffffffffffffffffffffffffffffffff16815260200190815260200160002060008373ffffffffffffffffffffffffffffffffffffffff1673ffffffffffffffffffffffffffffffffffffffff16815260200190815260200160002060009054906101000a900460ff16905092915050565b60607ffff7b8e4ac10566d090c9cdfc71d80fcc431b76ce09edaddaa421288a053208a611e19816122f9565b6000601b6000858152602001908152602001600020805480602002602001604051908101604052809291908181526020016000905b82821015611e865783829060005260206000200160405180602001604052908160008201548152505081526020019060010190611e4e565b5050505090506000815167ffffffffffffffff811115611ea957611ea86137df565b5b604051908082528060200260200182016040528015611edc57816020015b6060815260200190600190039081611ec75790505b50905060005b8251811015611f5c576000601a6000858481518110611f0457611f03614121565b5b6020026020010151600001518152602001908152602001600020549050611f2a81611aa1565b838381518110611f3d57611f3c614121565b5b6020026020010181905250508080611f54906141ea565b915050611ee2565b50809350505050919050565b611f70612894565b600073ffffffffffffffffffffffffffffffffffffffff168173ffffffffffffffffffffffffffffffffffffffff1603611fdf576040517f08c379a0000000000000000000000000000000000000000000000000000000008152600401611fd690614afc565b60405180910390fd5b611fe881612912565b50565b7fc9c8e67a61d2e7371df46522b44051b955c16bf4b713ef44e1373b25bfcd80b2612015816122f9565b60006040518060400160405280878152602001861515815250905061203a601561230d565b60006120466015612323565b905080601760008981526020019081526020016000208190555060168290806001815401808255809150506001900390600052602060002090600202016000909190919091506000820151816000015560208201518160010160006101000a81548160ff02191690831515021790555050506120c3813387612331565b50601860008581526020019081526020016000208290806001815401808255809150506001900390600052602060002090600202016000909190919091506000820151816000015560208201518160010160006101000a81548160ff02191690831515021790555050507fd8291ad852f7c1a8474d38fb5fb470863f7e1ac14d1eb64fb2a76c9d14cef215878787876040516121629493929190614b1c565b60405180910390a150505050505050565b60007f7965db0b000000000000000000000000000000000000000000000000000000007bffffffffffffffffffffffffffffffffffffffffffffffffffffffff1916827bffffffffffffffffffffffffffffffffffffffffffffffffffffffff191614806121e657506121e582612c1d565b5b9050919050565b6121f681612cff565b612235576040517f08c379a000000000000000000000000000000000000000000000000000000000815260040161222c90614978565b60405180910390fd5b50565b600033905090565b816005600083815260200190815260200160002060006101000a81548173ffffffffffffffffffffffffffffffffffffffff021916908373ffffffffffffffffffffffffffffffffffffffff160217905550808273ffffffffffffffffffffffffffffffffffffffff166122b38361168c565b73ffffffffffffffffffffffffffffffffffffffff167f8c5be1e5ebec7d5bd14f71427d1e84f3dd0314c0f7b2291e5b200ac8c7c3b92560405160405180910390a45050565b61230a81612305612238565b612d6b565b50565b6001816000016000828254019250508190555050565b600081600001549050919050565b600061233d8385612def565b6123478483612fc8565b8390509392505050565b60008061235d8361168c565b90508073ffffffffffffffffffffffffffffffffffffffff168473ffffffffffffffffffffffffffffffffffffffff16148061239f575061239e8185611d59565b5b806123dd57508373ffffffffffffffffffffffffffffffffffffffff166123c584610b1c565b73ffffffffffffffffffffffffffffffffffffffff16145b91505092915050565b8273ffffffffffffffffffffffffffffffffffffffff166124068261168c565b73ffffffffffffffffffffffffffffffffffffffff161461245c576040517f08c379a000000000000000000000000000000000000000000000000000000000815260040161245390614bda565b60405180910390fd5b600073ffffffffffffffffffffffffffffffffffffffff168273ffffffffffffffffffffffffffffffffffffffff16036124cb576040517f08c379a00000000000000000000000000000000000000000000000000000000081526004016124c290614c6c565b60405180910390fd5b6124d6838383613035565b6124e1600082612240565b6001600460008573ffffffffffffffffffffffffffffffffffffffff1673ffffffffffffffffffffffffffffffffffffffff1681526020019081526020016000206000828254612531919061417f565b925050819055506001600460008473ffffffffffffffffffffffffffffffffffffffff1673ffffffffffffffffffffffffffffffffffffffff16815260200190815260200160002060008282546125889190614821565b92505081905550816003600083815260200190815260200160002060006101000a81548173ffffffffffffffffffffffffffffffffffffffff021916908373ffffffffffffffffffffffffffffffffffffffff160217905550808273ffffffffffffffffffffffffffffffffffffffff168473ffffffffffffffffffffffffffffffffffffffff167fddf252ad1be2c89b69c2b068fc378daa952ba7f163c4a11628f55a4df523b3ef60405160405180910390a461264783838361303a565b505050565b60007fc853308605851716aebf9b8085de39c1c4ef8de095a393b3a950e2fb1686bf83612678816122f9565b6000805b6010805490508110156126c657846010828154811061269e5761269d614121565b5b9060005260206000200154036126b357600191505b80806126be906141ea565b91505061267c565b508092505050919050565b6126db82826118fb565b6127ae5760016008600084815260200190815260200160002060000160008373ffffffffffffffffffffffffffffffffffffffff1673ffffffffffffffffffffffffffffffffffffffff16815260200190815260200160002060006101000a81548160ff021916908315150217905550612753612238565b73ffffffffffffffffffffffffffffffffffffffff168173ffffffffffffffffffffffffffffffffffffffff16837f2f8788117e7eff1d82e926ec794901d17c78024a50270940304540a733656f0d60405160405180910390a45b5050565b6127bc82826118fb565b156128905760006008600084815260200190815260200160002060000160008373ffffffffffffffffffffffffffffffffffffffff1673ffffffffffffffffffffffffffffffffffffffff16815260200190815260200160002060006101000a81548160ff021916908315150217905550612835612238565b73ffffffffffffffffffffffffffffffffffffffff168173ffffffffffffffffffffffffffffffffffffffff16837ff6391f5c32d9c69d2a47ea670b442974b53935d1edc7fd64eb21e047a839171b60405160405180910390a45b5050565b61289c612238565b73ffffffffffffffffffffffffffffffffffffffff166128ba61182c565b73ffffffffffffffffffffffffffffffffffffffff1614612910576040517f08c379a000000000000000000000000000000000000000000000000000000000815260040161290790614cd8565b60405180910390fd5b565b60008060009054906101000a900473ffffffffffffffffffffffffffffffffffffffff169050816000806101000a81548173ffffffffffffffffffffffffffffffffffffffff021916908373ffffffffffffffffffffffffffffffffffffffff1602179055508173ffffffffffffffffffffffffffffffffffffffff168173ffffffffffffffffffffffffffffffffffffffff167f8be0079c531659141344cd1fd0a4f28419497f9722a3daafe3b4186f6b6457e060405160405180910390a35050565b8173ffffffffffffffffffffffffffffffffffffffff168373ffffffffffffffffffffffffffffffffffffffff1603612a44576040517f08c379a0000000000000000000000000000000000000000000000000000000008152600401612a3b90614d44565b60405180910390fd5b80600660008573ffffffffffffffffffffffffffffffffffffffff1673ffffffffffffffffffffffffffffffffffffffff16815260200190815260200160002060008473ffffffffffffffffffffffffffffffffffffffff1673ffffffffffffffffffffffffffffffffffffffff16815260200190815260200160002060006101000a81548160ff0219169083151502179055508173ffffffffffffffffffffffffffffffffffffffff168373ffffffffffffffffffffffffffffffffffffffff167f17307eab39ab6107e8899845ad3d59bd9653f200f220920489ca2b5937696c3183604051612b359190613550565b60405180910390a3505050565b612b4d8484846123e6565b612b598484848461303f565b612b98576040517f08c379a0000000000000000000000000000000000000000000000000000000008152600401612b8f90614dd6565b60405180910390fd5b50505050565b606060405180602001604052806000815250905090565b6060612bc0826121ed565b6000612bca612b9e565b90506000815111612bea5760405180602001604052806000815250612c15565b80612bf4846131c6565b604051602001612c05929190614a66565b6040516020818303038152906040525b915050919050565b60007f80ac58cd000000000000000000000000000000000000000000000000000000007bffffffffffffffffffffffffffffffffffffffffffffffffffffffff1916827bffffffffffffffffffffffffffffffffffffffffffffffffffffffff19161480612ce857507f5b5e139f000000000000000000000000000000000000000000000000000000007bffffffffffffffffffffffffffffffffffffffffffffffffffffffff1916827bffffffffffffffffffffffffffffffffffffffffffffffffffffffff1916145b80612cf85750612cf782613326565b5b9050919050565b60008073ffffffffffffffffffffffffffffffffffffffff166003600084815260200190815260200160002060009054906101000a900473ffffffffffffffffffffffffffffffffffffffff1673ffffffffffffffffffffffffffffffffffffffff1614159050919050565b612d7582826118fb565b612deb576040518060400160405280601181526020017f556e617574686f72697a65643a204143520000000000000000000000000000008152506040517f08c379a0000000000000000000000000000000000000000000000000000000008152600401612de2919061367a565b60405180910390fd5b5050565b600073ffffffffffffffffffffffffffffffffffffffff168273ffffffffffffffffffffffffffffffffffffffff1603612e5e576040517f08c379a0000000000000000000000000000000000000000000000000000000008152600401612e5590614e42565b60405180910390fd5b612e6781612cff565b15612ea7576040517f08c379a0000000000000000000000000000000000000000000000000000000008152600401612e9e90614eae565b60405180910390fd5b612eb360008383613035565b6001600460008473ffffffffffffffffffffffffffffffffffffffff1673ffffffffffffffffffffffffffffffffffffffff1681526020019081526020016000206000828254612f039190614821565b92505081905550816003600083815260200190815260200160002060006101000a81548173ffffffffffffffffffffffffffffffffffffffff021916908373ffffffffffffffffffffffffffffffffffffffff160217905550808273ffffffffffffffffffffffffffffffffffffffff16600073ffffffffffffffffffffffffffffffffffffffff167fddf252ad1be2c89b69c2b068fc378daa952ba7f163c4a11628f55a4df523b3ef60405160405180910390a4612fc46000838361303a565b5050565b612fd182612cff565b613010576040517f08c379a000000000000000000000000000000000000000000000000000000000815260040161300790614f40565b60405180910390fd5b806007600084815260200190815260200160002090816130309190614632565b505050565b505050565b505050565b60006130608473ffffffffffffffffffffffffffffffffffffffff16613390565b156131b9578373ffffffffffffffffffffffffffffffffffffffff1663150b7a02613089612238565b8786866040518563ffffffff1660e01b81526004016130ab9493929190614fb5565b6020604051808303816000875af19250505080156130e757506040513d601f19601f820116820180604052508101906130e49190615016565b60015b613169573d8060008114613117576040519150601f19603f3d011682016040523d82523d6000602084013e61311c565b606091505b506000815103613161576040517f08c379a000000000000000000000000000000000000000000000000000000000815260040161315890614dd6565b60405180910390fd5b805181602001fd5b63150b7a0260e01b7bffffffffffffffffffffffffffffffffffffffffffffffffffffffff1916817bffffffffffffffffffffffffffffffffffffffffffffffffffffffff1916149150506131be565b600190505b949350505050565b60606000820361320d576040518060400160405280600181526020017f30000000000000000000000000000000000000000000000000000000000000008152509050613321565b600082905060005b6000821461323f578080613228906141ea565b915050600a826132389190615072565b9150613215565b60008167ffffffffffffffff81111561325b5761325a6137df565b5b6040519080825280601f01601f19166020018201604052801561328d5781602001600182028036833780820191505090505b5090505b6000851461331a576001826132a6919061417f565b9150600a856132b591906150a3565b60306132c19190614821565b60f81b8183815181106132d7576132d6614121565b5b60200101907effffffffffffffffffffffffffffffffffffffffffffffffffffffffffffff1916908160001a905350600a856133139190615072565b9450613291565b8093505050505b919050565b60007f01ffc9a7000000000000000000000000000000000000000000000000000000007bffffffffffffffffffffffffffffffffffffffffffffffffffffffff1916827bffffffffffffffffffffffffffffffffffffffffffffffffffffffff1916149050919050565b6000808273ffffffffffffffffffffffffffffffffffffffff163b119050919050565b6000604051905090565b600080fd5b600080fd5b600073ffffffffffffffffffffffffffffffffffffffff82169050919050565b60006133f2826133c7565b9050919050565b613402816133e7565b811461340d57600080fd5b50565b60008135905061341f816133f9565b92915050565b60006020828403121561343b5761343a6133bd565b5b600061344984828501613410565b91505092915050565b6000819050919050565b61346581613452565b82525050565b6000602082019050613480600083018461345c565b92915050565b61348f816133e7565b82525050565b60006020820190506134aa6000830184613486565b92915050565b60007fffffffff0000000000000000000000000000000000000000000000000000000082169050919050565b6134e5816134b0565b81146134f057600080fd5b50565b600081359050613502816134dc565b92915050565b60006020828403121561351e5761351d6133bd565b5b600061352c848285016134f3565b91505092915050565b60008115159050919050565b61354a81613535565b82525050565b60006020820190506135656000830184613541565b92915050565b61357481613452565b811461357f57600080fd5b50565b6000813590506135918161356b565b92915050565b6000806000606084860312156135b0576135af6133bd565b5b60006135be86828701613582565b93505060206135cf86828701613582565b92505060406135e086828701613410565b9150509250925092565b600081519050919050565b600082825260208201905092915050565b60005b83811015613624578082015181840152602081019050613609565b60008484015250505050565b6000601f19601f8301169050919050565b600061364c826135ea565b61365681856135f5565b9350613666818560208601613606565b61366f81613630565b840191505092915050565b600060208201905081810360008301526136948184613641565b905092915050565b6000819050919050565b6136af8161369c565b81146136ba57600080fd5b50565b6000813590506136cc816136a6565b92915050565b6000602082840312156136e8576136e76133bd565b5b60006136f6848285016136bd565b91505092915050565b60008060408385031215613716576137156133bd565b5b600061372485828601613410565b9250506020613735858286016136bd565b9150509250929050565b60008060408385031215613756576137556133bd565b5b600061376485828601613582565b9250506020613775858286016136bd565b9150509250929050565b6000604082019050613794600083018561345c565b6137a1602083018461345c565b9392505050565b6000602082840312156137be576137bd6133bd565b5b60006137cc84828501613582565b91505092915050565b600080fd5b600080fd5b7f4e487b7100000000000000000000000000000000000000000000000000000000600052604160045260246000fd5b61381782613630565b810181811067ffffffffffffffff82111715613836576138356137df565b5b80604052505050565b60006138496133b3565b9050613855828261380e565b919050565b600067ffffffffffffffff821115613875576138746137df565b5b61387e82613630565b9050602081019050919050565b82818337600083830152505050565b60006138ad6138a88461385a565b61383f565b9050828152602081018484840111156138c9576138c86137da565b5b6138d484828561388b565b509392505050565b600082601f8301126138f1576138f06137d5565b5b813561390184826020860161389a565b91505092915050565b600080600060608486031215613923576139226133bd565b5b600061393186828701613582565b935050602084013567ffffffffffffffff811115613952576139516133c2565b5b61395e868287016138dc565b925050604061396f86828701613582565b9150509250925092565b600080600060608486031215613992576139916133bd565b5b60006139a086828701613410565b93505060206139b186828701613410565b92505060406139c2868287016136bd565b9150509250925092565b6000806000606084860312156139e5576139e46133bd565b5b60006139f386828701613582565b935050602084013567ffffffffffffffff811115613a1457613a136133c2565b5b613a20868287016138dc565b925050604084013567ffffffffffffffff811115613a4157613a406133c2565b5b613a4d868287016138dc565b9150509250925092565b60008060008060808587031215613a7157613a706133bd565b5b6000613a7f87828801613582565b9450506020613a9087828801613582565b9350506040613aa187828801613410565b9250506060613ab287828801613582565b91505092959194509250565b60008060408385031215613ad557613ad46133bd565b5b6000613ae385828601613582565b9250506020613af485828601613410565b9150509250929050565b600081519050919050565b600082825260208201905092915050565b6000819050602082019050919050565b600082825260208201905092915050565b6000613b46826135ea565b613b508185613b2a565b9350613b60818560208601613606565b613b6981613630565b840191505092915050565b6000613b808383613b3b565b905092915050565b6000602082019050919050565b6000613ba082613afe565b613baa8185613b09565b935083602082028501613bbc85613b1a565b8060005b85811015613bf85784840389528151613bd98582613b74565b9450613be483613b88565b925060208a01995050600181019050613bc0565b50829750879550505050505092915050565b600081519050919050565b600082825260208201905092915050565b6000819050602082019050919050565b613c3f81613535565b82525050565b6000613c518383613c36565b60208301905092915050565b6000602082019050919050565b6000613c7582613c0a565b613c7f8185613c15565b9350613c8a83613c26565b8060005b83811015613cbb578151613ca28882613c45565b9750613cad83613c5d565b925050600181019050613c8e565b5085935050505092915050565b60006040820190508181036000830152613ce28185613b95565b90508181036020830152613cf68184613c6a565b90509392505050565b600081519050919050565b600082825260208201905092915050565b6000819050602082019050919050565b613d3481613452565b82525050565b6000613d468383613d2b565b60208301905092915050565b6000602082019050919050565b6000613d6a82613cff565b613d748185613d0a565b9350613d7f83613d1b565b8060005b83811015613db0578151613d978882613d3a565b9750613da283613d52565b925050600181019050613d83565b5085935050505092915050565b60006020820190508181036000830152613dd78184613d5f565b905092915050565b613de88161369c565b82525050565b6000602082019050613e036000830184613ddf565b92915050565b613e1281613535565b8114613e1d57600080fd5b50565b600081359050613e2f81613e09565b92915050565b60008060408385031215613e4c57613e4b6133bd565b5b6000613e5a85828601613410565b9250506020613e6b85828601613e20565b9150509250929050565b600067ffffffffffffffff821115613e9057613e8f6137df565b5b613e9982613630565b9050602081019050919050565b6000613eb9613eb484613e75565b61383f565b905082815260208101848484011115613ed557613ed46137da565b5b613ee084828561388b565b509392505050565b600082601f830112613efd57613efc6137d5565b5b8135613f0d848260208601613ea6565b91505092915050565b60008060008060808587031215613f3057613f2f6133bd565b5b6000613f3e87828801613410565b9450506020613f4f87828801613410565b9350506040613f60878288016136bd565b925050606085013567ffffffffffffffff811115613f8157613f806133c2565b5b613f8d87828801613ee8565b91505092959194509250565b60006040820190508181036000830152613fb38185613d5f565b90508181036020830152613fc78184613d5f565b90509392505050565b60008060408385031215613fe757613fe66133bd565b5b6000613ff585828601613410565b925050602061400685828601613410565b9150509250929050565b6000602082019050818103600083015261402a8184613b95565b905092915050565b6000806000806080858703121561404c5761404b6133bd565b5b600061405a87828801613582565b945050602061406b87828801613e20565b935050604085013567ffffffffffffffff81111561408c5761408b6133c2565b5b614098878288016138dc565b92505060606140a987828801613582565b91505092959194509250565b7f4944204d69736d61746368000000000000000000000000000000000000000000600082015250565b60006140eb600b836135f5565b91506140f6826140b5565b602082019050919050565b6000602082019050818103600083015261411a816140de565b9050919050565b7f4e487b7100000000000000000000000000000000000000000000000000000000600052603260045260246000fd5b7f4e487b7100000000000000000000000000000000000000000000000000000000600052601160045260246000fd5b600061418a8261369c565b91506141958361369c565b92508282039050818111156141ad576141ac614150565b5b92915050565b60006060820190506141c8600083018661345c565b6141d5602083018561345c565b6141e26040830184613486565b949350505050565b60006141f58261369c565b91507fffffffffffffffffffffffffffffffffffffffffffffffffffffffffffffffff820361422757614226614150565b5b600182019050919050565b7f4e487b7100000000000000000000000000000000000000000000000000000000600052602260045260246000fd5b6000600282049050600182168061427957607f821691505b60208210810361428c5761428b614232565b5b50919050565b7f4552433732313a20617070726f76616c20746f2063757272656e74206f776e6560008201527f7200000000000000000000000000000000000000000000000000000000000000602082015250565b60006142ee6021836135f5565b91506142f982614292565b604082019050919050565b6000602082019050818103600083015261431d816142e1565b9050919050565b7f4552433732313a20617070726f76652063616c6c6572206973206e6f7420746f60008201527f6b656e206f776e6572206e6f7220617070726f76656420666f7220616c6c0000602082015250565b6000614380603e836135f5565b915061438b82614324565b604082019050919050565b600060208201905081810360008301526143af81614373565b9050919050565b60006060820190506143cb600083018661345c565b81810360208301526143dd8185613641565b90506143ec604083018461345c565b949350505050565b7f4552433732313a2063616c6c6572206973206e6f7420746f6b656e206f776e6560008201527f72206e6f7220617070726f766564000000000000000000000000000000000000602082015250565b6000614450602e836135f5565b915061445b826143f4565b604082019050919050565b6000602082019050818103600083015261447f81614443565b9050919050565b60008190508160005260206000209050919050565b60006020601f8301049050919050565b600082821b905092915050565b6000600883026144e87fffffffffffffffffffffffffffffffffffffffffffffffffffffffffffffffff826144ab565b6144f286836144ab565b95508019841693508086168417925050509392505050565b6000819050919050565b600061452f61452a6145258461369c565b61450a565b61369c565b9050919050565b6000819050919050565b61454983614514565b61455d61455582614536565b8484546144b8565b825550505050565b600090565b614572614565565b61457d818484614540565b505050565b5b818110156145a15761459660008261456a565b600181019050614583565b5050565b601f8211156145e6576145b781614486565b6145c08461449b565b810160208510156145cf578190505b6145e36145db8561449b565b830182614582565b50505b505050565b600082821c905092915050565b6000614609600019846008026145eb565b1980831691505092915050565b600061462283836145f8565b9150826002028217905092915050565b61463b826135ea565b67ffffffffffffffff811115614654576146536137df565b5b61465e8254614261565b6146698282856145a5565b600060209050601f83116001811461469c576000841561468a578287015190505b6146948582614616565b8655506146fc565b601f1984166146aa86614486565b60005b828110156146d2578489015182556001820191506020850194506020810190506146ad565b868310156146ef57848901516146eb601f8916826145f8565b8355505b6001600288020188555050505b505050505050565b6000606082019050614719600083018661345c565b818103602083015261472b8185613641565b9050818103604083015261473f8184613641565b9050949350505050565b7f5573657220616c726561647920686173206120526f6c65000000000000000000600082015250565b600061477f6017836135f5565b915061478a82614749565b602082019050919050565b600060208201905081810360008301526147ae81614772565b9050919050565b7f57726f6e6720486f73706974616c494400000000000000000000000000000000600082015250565b60006147eb6010836135f5565b91506147f6826147b5565b602082019050919050565b6000602082019050818103600083015261481a816147de565b9050919050565b600061482c8261369c565b91506148378361369c565b925082820190508082111561484f5761484e614150565b5b92915050565b600060808201905061486a600083018761345c565b614877602083018661345c565b6148846040830185613486565b614891606083018461345c565b95945050505050565b7f416363657373436f6e74726f6c3a2063616e206f6e6c792072656e6f756e636560008201527f20726f6c657320666f722073656c660000000000000000000000000000000000602082015250565b60006148f6602f836135f5565b91506149018261489a565b604082019050919050565b60006020820190508181036000830152614925816148e9565b9050919050565b7f4552433732313a20696e76616c696420746f6b656e2049440000000000000000600082015250565b60006149626018836135f5565b915061496d8261492c565b602082019050919050565b6000602082019050818103600083015261499181614955565b9050919050565b7f4552433732313a2061646472657373207a65726f206973206e6f74206120766160008201527f6c6964206f776e65720000000000000000000000000000000000000000000000602082015250565b60006149f46029836135f5565b91506149ff82614998565b604082019050919050565b60006020820190508181036000830152614a23816149e7565b9050919050565b600081905092915050565b6000614a40826135ea565b614a4a8185614a2a565b9350614a5a818560208601613606565b80840191505092915050565b6000614a728285614a35565b9150614a7e8284614a35565b91508190509392505050565b7f4f776e61626c653a206e6577206f776e657220697320746865207a65726f206160008201527f6464726573730000000000000000000000000000000000000000000000000000602082015250565b6000614ae66026836135f5565b9150614af182614a8a565b604082019050919050565b60006020820190508181036000830152614b1581614ad9565b9050919050565b6000608082019050614b31600083018761345c565b614b3e6020830186613541565b8181036040830152614b508185613641565b9050614b5f606083018461345c565b95945050505050565b7f4552433732313a207472616e736665722066726f6d20696e636f72726563742060008201527f6f776e6572000000000000000000000000000000000000000000000000000000602082015250565b6000614bc46025836135f5565b9150614bcf82614b68565b604082019050919050565b60006020820190508181036000830152614bf381614bb7565b9050919050565b7f4552433732313a207472616e7366657220746f20746865207a65726f2061646460008201527f7265737300000000000000000000000000000000000000000000000000000000602082015250565b6000614c566024836135f5565b9150614c6182614bfa565b604082019050919050565b60006020820190508181036000830152614c8581614c49565b9050919050565b7f4f776e61626c653a2063616c6c6572206973206e6f7420746865206f776e6572600082015250565b6000614cc26020836135f5565b9150614ccd82614c8c565b602082019050919050565b60006020820190508181036000830152614cf181614cb5565b9050919050565b7f4552433732313a20617070726f766520746f2063616c6c657200000000000000600082015250565b6000614d2e6019836135f5565b9150614d3982614cf8565b602082019050919050565b60006020820190508181036000830152614d5d81614d21565b9050919050565b7f4552433732313a207472616e7366657220746f206e6f6e20455243373231526560008201527f63656976657220696d706c656d656e7465720000000000000000000000000000602082015250565b6000614dc06032836135f5565b9150614dcb82614d64565b604082019050919050565b60006020820190508181036000830152614def81614db3565b9050919050565b7f4552433732313a206d696e7420746f20746865207a65726f2061646472657373600082015250565b6000614e2c6020836135f5565b9150614e3782614df6565b602082019050919050565b60006020820190508181036000830152614e5b81614e1f565b9050919050565b7f4552433732313a20746f6b656e20616c7265616479206d696e74656400000000600082015250565b6000614e98601c836135f5565b9150614ea382614e62565b602082019050919050565b60006020820190508181036000830152614ec781614e8b565b9050919050565b7f45524337323155524953746f726167653a2055524920736574206f66206e6f6e60008201527f6578697374656e7420746f6b656e000000000000000000000000000000000000602082015250565b6000614f2a602e836135f5565b9150614f3582614ece565b604082019050919050565b60006020820190508181036000830152614f5981614f1d565b9050919050565b600081519050919050565b600082825260208201905092915050565b6000614f8782614f60565b614f918185614f6b565b9350614fa1818560208601613606565b614faa81613630565b840191505092915050565b6000608082019050614fca6000830187613486565b614fd76020830186613486565b614fe46040830185613ddf565b8181036060830152614ff68184614f7c565b905095945050505050565b600081519050615010816134dc565b92915050565b60006020828403121561502c5761502b6133bd565b5b600061503a84828501615001565b91505092915050565b7f4e487b7100000000000000000000000000000000000000000000000000000000600052601260045260246000fd5b600061507d8261369c565b91506150888361369c565b92508261509857615097615043565b5b828204905092915050565b60006150ae8261369c565b91506150b98361369c565b9250826150c9576150c8615043565b5b82820690509291505056fea2646970667358221220c49aa62b62ae53142af1d57f4f28152b31c062f0d2793d305995f2fe11694bb664736f6c63430008110033",
  "immutableReferences": {},
  "source": "// SPDX-License-Identifier: MIT\npragma solidity 0.8.17;\n\nimport \"@openzeppelin/contracts/token/ERC721/extensions/ERC721URIStorage.sol\";\nimport \"@openzeppelin/contracts/utils/Counters.sol\";\nimport \"./Hospital.sol\";\n\ncontract NeuromedTasks is ERC721URIStorage, Hospital{\n\n    using Counters for Counters.Counter;\n    Counters.Counter private _tokenIds;\n\n    struct MedRecord{\n        bytes32 mRecId;\n        bool isCritical;\n    }\n\n    MedRecord[] medrecords;\n    mapping(bytes32 => uint256) tokenIdforMedRecorddId;\n    mapping(bytes32 => MedRecord[]) patientsMedRecs;\n\n    struct LabReport{\n        bytes32 lRepId;\n    }\n\n    LabReport[] labReports;\n    mapping(bytes32 => uint256) tokenIdforLabReportId;\n    mapping(bytes32 => LabReport[]) patientsLabReports;\n\n    event PatientAdded(bytes32 ptId, string ptNic, string ptLink);\n    event MedRecAdded(bytes32 mRecId, bool isCritical, string tokenURI, bytes32 ptId);\n    event LabRepAdded(bytes32 lRepId, string tokenURI, bytes32 ptId);\n\n    constructor() ERC721(\"NM_Contract\", \"NMC\") {\n\n    }\n\n    function registerPatient\n    (bytes32 _ptId, string memory _ptNic, string memory _tokenURI) \n    public onlyRole(MREP){\n        _tokenIds.increment();\n        uint256 newItemId = _tokenIds.current();\n        tokenIdforPatientId[_ptId] = newItemId;\n        patients.push(Patient(_ptId, _ptNic));\n        mintNFT(newItemId, msg.sender, _tokenURI);\n        emit PatientAdded(_ptId, _ptNic, _tokenURI);\n    }\n\n    function addMedicalrecord\n    (bytes32 _mRecId, bool _isCritical, string memory _tokenURI, bytes32 _ptId)\n    public onlyRole(DOCTOR){\n        MedRecord memory med_record = MedRecord(_mRecId, _isCritical);\n         _tokenIds.increment();\n        uint256 newItemId = _tokenIds.current();\n        tokenIdforMedRecorddId[_mRecId] = newItemId;\n        medrecords.push(med_record);\n        mintNFT(newItemId, msg.sender, _tokenURI);\n        patientsMedRecs[_ptId].push(med_record);\n        emit MedRecAdded(_mRecId, _isCritical, _tokenURI, _ptId);\n    }\n\n    function addLabReport\n    (bytes32 _lRepId, string memory _tokenURI, bytes32 _ptId)\n    public onlyRole(LAB_ASST){\n        LabReport memory lab_report = LabReport(_lRepId);\n        _tokenIds.increment();\n        uint256 newItemId = _tokenIds.current();\n        tokenIdforLabReportId[_lRepId] = newItemId;\n        labReports.push(lab_report);\n        mintNFT(newItemId, msg.sender, _tokenURI);\n        patientsLabReports[_ptId].push(lab_report);\n        emit LabRepAdded(_lRepId, _tokenURI, _ptId);\n    }\n\n    function mintNFT(uint256 newItemId, address recipient, string memory tokenURI)\n    internal returns (uint256){\n       _mint(recipient, newItemId);\n       _setTokenURI(newItemId, tokenURI);\n       return newItemId;\n    }\n\n    function getPatientURI(bytes32 _ptId)\n    public onlyRole(DOCTOR) view returns(string memory){\n        return tokenURI(tokenIdforPatientId[_ptId]);\n    }\n\n    function getMedRecsForPatient(bytes32 _ptId)\n    public onlyRole(DOCTOR) view returns(string[] memory, bool[] memory){\n        MedRecord[] memory medRecs = patientsMedRecs[_ptId];\n        string[] memory mrec_uris = new string[](medRecs.length);\n        bool[] memory mrec_iscric = new bool[](medRecs.length);\n        for(uint x = 0; x < medRecs.length; x++){\n            uint token_id = tokenIdforMedRecorddId[medRecs[x].mRecId];\n            mrec_uris[x] = tokenURI(token_id);\n            mrec_iscric[x] = medRecs[x].isCritical;\n        }\n        return (mrec_uris, mrec_iscric);\n    }\n\n    function getMedRecsURIs(MedRecord[] memory medRecs)\n    internal view returns(string[] memory){\n        string[] memory mrec_uris = new string[](medRecs.length);\n        for(uint x = 0; x < medRecs.length; x++){\n            uint token_id = tokenIdforMedRecorddId[medRecs[x].mRecId];\n            mrec_uris[x] = tokenURI(token_id);\n        }\n        return mrec_uris;\n    }\n\n    function getLabRepsForPatient(bytes32 _ptId)\n    public onlyRole(LAB_ASST) view returns(string[] memory){\n        LabReport[] memory labRecs = patientsLabReports[_ptId];\n        string[] memory lrec_uris = new string[](labRecs.length);\n        for(uint x = 0; x < labRecs.length; x++){\n            uint token_id = tokenIdforLabReportId[labRecs[x].lRepId];\n            lrec_uris[x] = tokenURI(token_id);\n        }\n        return lrec_uris;\n    }\n\n    // The following functions are overrides required by Solidity.\n    function supportsInterface(bytes4 interfaceId) public view override\n        (ERC721, AccessControl) returns (bool)\n    {\n        return super.supportsInterface(interfaceId);\n    }\n\n}",
  "sourcePath": "E:\\Web Development\\medicare\\medicare-admin-server\\truffle\\contracts\\NeuromedTasks.sol",
  "compiler": {
    "name": "solc",
    "version": "0.8.17+commit.8df45f5f.Emscripten.clang"
  },
  "schemaVersion": "3.4.10",
  "updatedAt": "2022-10-22T06:59:10.356Z",
  "devdoc": {
    "kind": "dev",
    "methods": {
      "approve(address,uint256)": {
        "details": "See {IERC721-approve}."
      },
      "balanceOf(address)": {
        "details": "See {IERC721-balanceOf}."
      },
      "getApproved(uint256)": {
        "details": "See {IERC721-getApproved}."
      },
      "getRoleAdmin(bytes32)": {
        "details": "Returns the admin role that controls `role`. See {grantRole} and {revokeRole}. To change a role's admin, use {_setRoleAdmin}."
      },
      "grantRole(bytes32,address)": {
        "details": "Grants `role` to `account`. If `account` had not been already granted `role`, emits a {RoleGranted} event. Requirements: - the caller must have ``role``'s admin role. May emit a {RoleGranted} event."
      },
      "hasRole(bytes32,address)": {
        "details": "Returns `true` if `account` has been granted `role`."
      },
      "isApprovedForAll(address,address)": {
        "details": "See {IERC721-isApprovedForAll}."
      },
      "name()": {
        "details": "See {IERC721Metadata-name}."
      },
      "owner()": {
        "details": "Returns the address of the current owner."
      },
      "ownerOf(uint256)": {
        "details": "See {IERC721-ownerOf}."
      },
      "renounceOwnership()": {
        "details": "Leaves the contract without owner. It will not be possible to call `onlyOwner` functions anymore. Can only be called by the current owner. NOTE: Renouncing ownership will leave the contract without an owner, thereby removing any functionality that is only available to the owner."
      },
      "renounceRole(bytes32,address)": {
        "details": "Revokes `role` from the calling account. Roles are often managed via {grantRole} and {revokeRole}: this function's purpose is to provide a mechanism for accounts to lose their privileges if they are compromised (such as when a trusted device is misplaced). If the calling account had been revoked `role`, emits a {RoleRevoked} event. Requirements: - the caller must be `account`. May emit a {RoleRevoked} event."
      },
      "revokeRole(bytes32,address)": {
        "details": "Revokes `role` from `account`. If `account` had been granted `role`, emits a {RoleRevoked} event. Requirements: - the caller must have ``role``'s admin role. May emit a {RoleRevoked} event."
      },
      "safeTransferFrom(address,address,uint256)": {
        "details": "See {IERC721-safeTransferFrom}."
      },
      "safeTransferFrom(address,address,uint256,bytes)": {
        "details": "See {IERC721-safeTransferFrom}."
      },
      "setApprovalForAll(address,bool)": {
        "details": "See {IERC721-setApprovalForAll}."
      },
      "symbol()": {
        "details": "See {IERC721Metadata-symbol}."
      },
      "tokenURI(uint256)": {
        "details": "See {IERC721Metadata-tokenURI}."
      },
      "transferFrom(address,address,uint256)": {
        "details": "See {IERC721-transferFrom}."
      },
      "transferOwnership(address)": {
        "details": "Transfers ownership of the contract to a new account (`newOwner`). Can only be called by the current owner."
      }
    },
    "version": 1
  },
  "userdoc": {
    "kind": "user",
    "methods": {},
    "version": 1
  }
}