{
  "contractName": "NeuromedAccess",
  "abi": [
    {
      "inputs": [],
      "stateMutability": "nonpayable",
      "type": "constructor"
    },
    {
      "anonymous": false,
      "inputs": [
        {
          "indexed": true,
          "internalType": "address",
          "name": "previousOwner",
          "type": "address"
        },
        {
          "indexed": true,
          "internalType": "address",
          "name": "newOwner",
          "type": "address"
        }
      ],
      "name": "OwnershipTransferred",
      "type": "event"
    },
    {
      "anonymous": false,
      "inputs": [
        {
          "indexed": true,
          "internalType": "bytes32",
          "name": "role",
          "type": "bytes32"
        },
        {
          "indexed": true,
          "internalType": "bytes32",
          "name": "previousAdminRole",
          "type": "bytes32"
        },
        {
          "indexed": true,
          "internalType": "bytes32",
          "name": "newAdminRole",
          "type": "bytes32"
        }
      ],
      "name": "RoleAdminChanged",
      "type": "event"
    },
    {
      "anonymous": false,
      "inputs": [
        {
          "indexed": true,
          "internalType": "bytes32",
          "name": "role",
          "type": "bytes32"
        },
        {
          "indexed": true,
          "internalType": "address",
          "name": "account",
          "type": "address"
        },
        {
          "indexed": true,
          "internalType": "address",
          "name": "sender",
          "type": "address"
        }
      ],
      "name": "RoleGranted",
      "type": "event"
    },
    {
      "anonymous": false,
      "inputs": [
        {
          "indexed": true,
          "internalType": "bytes32",
          "name": "role",
          "type": "bytes32"
        },
        {
          "indexed": true,
          "internalType": "address",
          "name": "account",
          "type": "address"
        },
        {
          "indexed": true,
          "internalType": "address",
          "name": "sender",
          "type": "address"
        }
      ],
      "name": "RoleRevoked",
      "type": "event"
    },
    {
      "anonymous": false,
      "inputs": [
        {
          "indexed": false,
          "internalType": "bytes32",
          "name": "userId",
          "type": "bytes32"
        },
        {
          "indexed": false,
          "internalType": "bytes32",
          "name": "userRole",
          "type": "bytes32"
        },
        {
          "indexed": false,
          "internalType": "address",
          "name": "userAdd",
          "type": "address"
        },
        {
          "indexed": false,
          "internalType": "bytes32",
          "name": "userHs",
          "type": "bytes32"
        }
      ],
      "name": "UserAdded",
      "type": "event"
    },
    {
      "anonymous": false,
      "inputs": [
        {
          "indexed": false,
          "internalType": "bytes32",
          "name": "userId",
          "type": "bytes32"
        },
        {
          "indexed": false,
          "internalType": "bytes32",
          "name": "userRole",
          "type": "bytes32"
        },
        {
          "indexed": false,
          "internalType": "address",
          "name": "userAdd",
          "type": "address"
        }
      ],
      "name": "UserRemoved",
      "type": "event"
    },
    {
      "inputs": [],
      "name": "DEFAULT_ADMIN_ROLE",
      "outputs": [
        {
          "internalType": "bytes32",
          "name": "",
          "type": "bytes32"
        }
      ],
      "stateMutability": "view",
      "type": "function"
    },
    {
      "inputs": [],
      "name": "DOCTOR",
      "outputs": [
        {
          "internalType": "bytes32",
          "name": "",
          "type": "bytes32"
        }
      ],
      "stateMutability": "view",
      "type": "function"
    },
    {
      "inputs": [],
      "name": "HS_ADMIN",
      "outputs": [
        {
          "internalType": "bytes32",
          "name": "",
          "type": "bytes32"
        }
      ],
      "stateMutability": "view",
      "type": "function"
    },
    {
      "inputs": [],
      "name": "LAB_ASST",
      "outputs": [
        {
          "internalType": "bytes32",
          "name": "",
          "type": "bytes32"
        }
      ],
      "stateMutability": "view",
      "type": "function"
    },
    {
      "inputs": [],
      "name": "MREP",
      "outputs": [
        {
          "internalType": "bytes32",
          "name": "",
          "type": "bytes32"
        }
      ],
      "stateMutability": "view",
      "type": "function"
    },
    {
      "inputs": [],
      "name": "NM_ADMIN",
      "outputs": [
        {
          "internalType": "bytes32",
          "name": "",
          "type": "bytes32"
        }
      ],
      "stateMutability": "view",
      "type": "function"
    },
    {
      "inputs": [],
      "name": "NO_HS",
      "outputs": [
        {
          "internalType": "bytes32",
          "name": "",
          "type": "bytes32"
        }
      ],
      "stateMutability": "view",
      "type": "function"
    },
    {
      "inputs": [
        {
          "internalType": "bytes32",
          "name": "role",
          "type": "bytes32"
        }
      ],
      "name": "getRoleAdmin",
      "outputs": [
        {
          "internalType": "bytes32",
          "name": "",
          "type": "bytes32"
        }
      ],
      "stateMutability": "view",
      "type": "function"
    },
    {
      "inputs": [
        {
          "internalType": "bytes32",
          "name": "role",
          "type": "bytes32"
        },
        {
          "internalType": "address",
          "name": "account",
          "type": "address"
        }
      ],
      "name": "grantRole",
      "outputs": [],
      "stateMutability": "nonpayable",
      "type": "function"
    },
    {
      "inputs": [
        {
          "internalType": "bytes32",
          "name": "role",
          "type": "bytes32"
        },
        {
          "internalType": "address",
          "name": "account",
          "type": "address"
        }
      ],
      "name": "hasRole",
      "outputs": [
        {
          "internalType": "bool",
          "name": "",
          "type": "bool"
        }
      ],
      "stateMutability": "view",
      "type": "function"
    },
    {
      "inputs": [],
      "name": "owner",
      "outputs": [
        {
          "internalType": "address",
          "name": "",
          "type": "address"
        }
      ],
      "stateMutability": "view",
      "type": "function"
    },
    {
      "inputs": [],
      "name": "renounceOwnership",
      "outputs": [],
      "stateMutability": "nonpayable",
      "type": "function"
    },
    {
      "inputs": [
        {
          "internalType": "bytes32",
          "name": "role",
          "type": "bytes32"
        },
        {
          "internalType": "address",
          "name": "account",
          "type": "address"
        }
      ],
      "name": "renounceRole",
      "outputs": [],
      "stateMutability": "nonpayable",
      "type": "function"
    },
    {
      "inputs": [
        {
          "internalType": "bytes32",
          "name": "role",
          "type": "bytes32"
        },
        {
          "internalType": "address",
          "name": "account",
          "type": "address"
        }
      ],
      "name": "revokeRole",
      "outputs": [],
      "stateMutability": "nonpayable",
      "type": "function"
    },
    {
      "inputs": [
        {
          "internalType": "address",
          "name": "",
          "type": "address"
        }
      ],
      "name": "roleOfUser",
      "outputs": [
        {
          "internalType": "bytes32",
          "name": "",
          "type": "bytes32"
        }
      ],
      "stateMutability": "view",
      "type": "function"
    },
    {
      "inputs": [
        {
          "internalType": "bytes4",
          "name": "interfaceId",
          "type": "bytes4"
        }
      ],
      "name": "supportsInterface",
      "outputs": [
        {
          "internalType": "bool",
          "name": "",
          "type": "bool"
        }
      ],
      "stateMutability": "view",
      "type": "function"
    },
    {
      "inputs": [
        {
          "internalType": "address",
          "name": "newOwner",
          "type": "address"
        }
      ],
      "name": "transferOwnership",
      "outputs": [],
      "stateMutability": "nonpayable",
      "type": "function"
    },
    {
      "inputs": [
        {
          "internalType": "bytes32",
          "name": "",
          "type": "bytes32"
        }
      ],
      "name": "userCountRole",
      "outputs": [
        {
          "internalType": "uint256",
          "name": "",
          "type": "uint256"
        }
      ],
      "stateMutability": "view",
      "type": "function"
    },
    {
      "inputs": [
        {
          "internalType": "bytes32",
          "name": "",
          "type": "bytes32"
        },
        {
          "internalType": "uint256",
          "name": "",
          "type": "uint256"
        }
      ],
      "name": "usersForARole",
      "outputs": [
        {
          "internalType": "bytes32",
          "name": "id",
          "type": "bytes32"
        },
        {
          "internalType": "bytes32",
          "name": "urole",
          "type": "bytes32"
        }
      ],
      "stateMutability": "view",
      "type": "function"
    },
    {
      "inputs": [],
      "name": "seeOwner",
      "outputs": [
        {
          "internalType": "address",
          "name": "",
          "type": "address"
        }
      ],
      "stateMutability": "view",
      "type": "function"
    },
    {
      "inputs": [
        {
          "internalType": "bytes32",
          "name": "_id",
          "type": "bytes32"
        },
        {
          "internalType": "bytes32",
          "name": "_addingUser",
          "type": "bytes32"
        },
        {
          "internalType": "address",
          "name": "_address",
          "type": "address"
        },
        {
          "internalType": "bytes32",
          "name": "_hospitalId",
          "type": "bytes32"
        }
      ],
      "name": "addUser",
      "outputs": [],
      "stateMutability": "nonpayable",
      "type": "function"
    },
    {
      "inputs": [
        {
          "internalType": "bytes32",
          "name": "_id",
          "type": "bytes32"
        },
        {
          "internalType": "bytes32",
          "name": "_removingUser",
          "type": "bytes32"
        },
        {
          "internalType": "address",
          "name": "_address",
          "type": "address"
        }
      ],
      "name": "removeUser",
      "outputs": [],
      "stateMutability": "nonpayable",
      "type": "function"
    },
    {
      "inputs": [],
      "name": "getAllUsers",
      "outputs": [
        {
          "internalType": "bytes32[]",
          "name": "",
          "type": "bytes32[]"
        },
        {
          "internalType": "bytes32[]",
          "name": "",
          "type": "bytes32[]"
        }
      ],
      "stateMutability": "view",
      "type": "function"
    }
  ],
  "bytecode": "0x60806040526000801b6002557f39349db958ca58bbd5da126bd654d05d8d0c93f86805918f236dc076194e195560001b6003553480156200003f57600080fd5b506200006062000054620001f860201b60201c565b6200020060201b60201c565b620000756000801b33620002c460201b60201c565b620000aa7fc853308605851716aebf9b8085de39c1c4ef8de095a393b3a950e2fb1686bf836000801b620003b560201b60201c565b620000fc7f8422142255c844d3d4a5104b709d1da65e3e4b88bc607f47279dd1baf7acc8087fc853308605851716aebf9b8085de39c1c4ef8de095a393b3a950e2fb1686bf83620003b560201b60201c565b6200014e7fc2af34e7cc1f3d8808f569d6d46a95c4217b618edefc26d793e3a6c23dfe262f7fc853308605851716aebf9b8085de39c1c4ef8de095a393b3a950e2fb1686bf83620003b560201b60201c565b620001a07fc9c8e67a61d2e7371df46522b44051b955c16bf4b713ef44e1373b25bfcd80b27fc853308605851716aebf9b8085de39c1c4ef8de095a393b3a950e2fb1686bf83620003b560201b60201c565b620001f27ffff7b8e4ac10566d090c9cdfc71d80fcc431b76ce09edaddaa421288a053208a7f8422142255c844d3d4a5104b709d1da65e3e4b88bc607f47279dd1baf7acc808620003b560201b60201c565b620004a4565b600033905090565b60008060009054906101000a900473ffffffffffffffffffffffffffffffffffffffff169050816000806101000a81548173ffffffffffffffffffffffffffffffffffffffff021916908373ffffffffffffffffffffffffffffffffffffffff1602179055508173ffffffffffffffffffffffffffffffffffffffff168173ffffffffffffffffffffffffffffffffffffffff167f8be0079c531659141344cd1fd0a4f28419497f9722a3daafe3b4186f6b6457e060405160405180910390a35050565b620002d682826200041960201b60201c565b620003b157600180600084815260200190815260200160002060000160008373ffffffffffffffffffffffffffffffffffffffff1673ffffffffffffffffffffffffffffffffffffffff16815260200190815260200160002060006101000a81548160ff02191690831515021790555062000356620001f860201b60201c565b73ffffffffffffffffffffffffffffffffffffffff168173ffffffffffffffffffffffffffffffffffffffff16837f2f8788117e7eff1d82e926ec794901d17c78024a50270940304540a733656f0d60405160405180910390a45b5050565b6000620003c8836200048460201b60201c565b90508160016000858152602001908152602001600020600101819055508181847fbd79b86ffe0ab8e8776151514217cd7cacd52c909f66475c3af44e129f0b00ff60405160405180910390a4505050565b60006001600084815260200190815260200160002060000160008373ffffffffffffffffffffffffffffffffffffffff1673ffffffffffffffffffffffffffffffffffffffff16815260200190815260200160002060009054906101000a900460ff16905092915050565b600060016000838152602001908152602001600020600101549050919050565b611d1580620004b46000396000f3fe608060405234801561001057600080fd5b506004361061014c5760003560e01c8063695d59b5116100c3578063b091b3a31161007c578063b091b3a3146103a0578063b21e20eb146103be578063d547741f146103dc578063e2842d79146103f8578063e41a9d5514610417578063f2fde38b146104355761014c565b8063695d59b5146102dc578063715018a6146102fa5780638da5cb5b146103045780638e3916801461032257806391d1485414610352578063a217fddf146103825761014c565b8063248a9ca311610115578063248a9ca31461021c5780632edd865a1461024c5780632efbdf82146102685780632f2ff15d1461028657806336568abe146102a2578063524fda90146102be5761014c565b80623045681461015157806301a44eff1461018157806301ffc9a71461019f57806304f162c3146101cf5780631846027c146101eb575b600080fd5b61016b60048036038101906101669190611349565b610451565b604051610178919061138f565b60405180910390f35b610189610469565b60405161019691906113b9565b60405180910390f35b6101b960048036038101906101b4919061142c565b610471565b6040516101c69190611474565b60405180910390f35b6101e960048036038101906101e491906114bb565b6104eb565b005b61020560048036038101906102009190611544565b6106ff565b604051610213929190611584565b60405180910390f35b610236600480360381019061023191906115ad565b610740565b604051610243919061138f565b60405180910390f35b610266600480360381019061026191906115da565b610760565b005b610270610a29565b60405161027d919061138f565b60405180910390f35b6102a0600480360381019061029b9190611641565b610a4d565b005b6102bc60048036038101906102b79190611641565b610a6e565b005b6102c6610af1565b6040516102d3919061138f565b60405180910390f35b6102e4610b15565b6040516102f1919061138f565b60405180910390f35b610302610b39565b005b61030c610b4d565b60405161031991906113b9565b60405180910390f35b61033c600480360381019061033791906115ad565b610b76565b6040516103499190611690565b60405180910390f35b61036c60048036038101906103679190611641565b610b8e565b6040516103799190611474565b60405180910390f35b61038a610bf9565b604051610397919061138f565b60405180910390f35b6103a8610c00565b6040516103b5919061138f565b60405180910390f35b6103c6610c24565b6040516103d3919061138f565b60405180910390f35b6103f660048036038101906103f19190611641565b610c2a565b005b610400610c4b565b60405161040e929190611769565b60405180910390f35b61041f610dac565b60405161042c919061138f565b60405180910390f35b61044f600480360381019061044a9190611349565b610dd0565b005b60046020528060005260406000206000915090505481565b600033905090565b60007f7965db0b000000000000000000000000000000000000000000000000000000007bffffffffffffffffffffffffffffffffffffffffffffffffffffffff1916827bffffffffffffffffffffffffffffffffffffffffffffffffffffffff191614806104e457506104e382610e53565b5b9050919050565b82600660008373ffffffffffffffffffffffffffffffffffffffff1673ffffffffffffffffffffffffffffffffffffffff168152602001908152602001600020600001541461056f576040517f08c379a0000000000000000000000000000000000000000000000000000000008152600401610566906117fd565b60405180910390fd5b60005b6005805490508110156106f95783600582815481106105945761059361181d565b5b906000526020600020906002020160000154036106e657600581815481106105bf576105be61181d565b5b906000526020600020906002020160008082016000905560018201600090555050600660008373ffffffffffffffffffffffffffffffffffffffff1673ffffffffffffffffffffffffffffffffffffffff16815260200190815260200160002060008082016000905560018201600090555050600460008373ffffffffffffffffffffffffffffffffffffffff1673ffffffffffffffffffffffffffffffffffffffff1681526020019081526020016000206000905561067f8383610c2a565b60016007600085815260200190815260200160002060008282546106a3919061187b565b925050819055507f29b7effafd8766b71f8b02ac5b6178267f0008e511d45c73f9cad93ae2eed7068484846040516106dd939291906118af565b60405180910390a15b80806106f1906118e6565b915050610572565b50505050565b6008602052816000526040600020818154811061071b57600080fd5b9060005260206000209060020201600091509150508060000154908060010154905082565b600060016000838152602001908152602001600020600101549050919050565b600254600460008473ffffffffffffffffffffffffffffffffffffffff1673ffffffffffffffffffffffffffffffffffffffff16815260200190815260200160002054146107e3576040517f08c379a00000000000000000000000000000000000000000000000000000000081526004016107da9061197a565b60405180910390fd5b60035481146108ba576107f581610ebd565b610834576040517f08c379a000000000000000000000000000000000000000000000000000000000815260040161082b906119e6565b60405180910390fd5b7f8422142255c844d3d4a5104b709d1da65e3e4b88bc607f47279dd1baf7acc80883036108785780600a6000868152602001908152602001600020819055506108b9565b7ffff7b8e4ac10566d090c9cdfc71d80fcc431b76ce09edaddaa421288a053208a83036108b85780600b6000868152602001908152602001600020819055505b5b5b6000604051806040016040528086815260200185815250905060058190806001815401808255809150506001900390600052602060002090600202016000909190919091506000820151816000015560208201518160010155505080600660008573ffffffffffffffffffffffffffffffffffffffff1673ffffffffffffffffffffffffffffffffffffffff16815260200190815260200160002060008201518160000155602082015181600101559050506109768484610a4d565b83600460008573ffffffffffffffffffffffffffffffffffffffff1673ffffffffffffffffffffffffffffffffffffffff1681526020019081526020016000208190555060016007600086815260200190815260200160002060008282546109de9190611a06565b925050819055507fb44122948ed009a8c34bf0c6f2b114d851979eb80b52f0e129e408036b7952a585858585604051610a1a9493929190611a3a565b60405180910390a15050505050565b7fc9c8e67a61d2e7371df46522b44051b955c16bf4b713ef44e1373b25bfcd80b281565b610a5682610740565b610a5f81610f42565b610a698383610f56565b505050565b610a76611036565b73ffffffffffffffffffffffffffffffffffffffff168173ffffffffffffffffffffffffffffffffffffffff1614610ae3576040517f08c379a0000000000000000000000000000000000000000000000000000000008152600401610ada90611af1565b60405180910390fd5b610aed828261103e565b5050565b7ffff7b8e4ac10566d090c9cdfc71d80fcc431b76ce09edaddaa421288a053208a81565b7fc2af34e7cc1f3d8808f569d6d46a95c4217b618edefc26d793e3a6c23dfe262f81565b610b41611120565b610b4b600061119e565b565b60008060009054906101000a900473ffffffffffffffffffffffffffffffffffffffff16905090565b60076020528060005260406000206000915090505481565b60006001600084815260200190815260200160002060000160008373ffffffffffffffffffffffffffffffffffffffff1673ffffffffffffffffffffffffffffffffffffffff16815260200190815260200160002060009054906101000a900460ff16905092915050565b6000801b81565b7fc853308605851716aebf9b8085de39c1c4ef8de095a393b3a950e2fb1686bf8381565b60035481565b610c3382610740565b610c3c81610f42565b610c46838361103e565b505050565b606080600060058054905067ffffffffffffffff811115610c6f57610c6e611b11565b5b604051908082528060200260200182016040528015610c9d5781602001602082028036833780820191505090505b509050600060058054905067ffffffffffffffff811115610cc157610cc0611b11565b5b604051908082528060200260200182016040528015610cef5781602001602082028036833780820191505090505b50905060005b600580549050811015610d9f5760058181548110610d1657610d1561181d565b5b906000526020600020906002020160000154838281518110610d3b57610d3a61181d565b5b60200260200101818152505060058181548110610d5b57610d5a61181d565b5b906000526020600020906002020160010154828281518110610d8057610d7f61181d565b5b6020026020010181815250508080610d97906118e6565b915050610cf5565b5081819350935050509091565b7f8422142255c844d3d4a5104b709d1da65e3e4b88bc607f47279dd1baf7acc80881565b610dd8611120565b600073ffffffffffffffffffffffffffffffffffffffff168173ffffffffffffffffffffffffffffffffffffffff1603610e47576040517f08c379a0000000000000000000000000000000000000000000000000000000008152600401610e3e90611bb2565b60405180910390fd5b610e508161119e565b50565b60007f01ffc9a7000000000000000000000000000000000000000000000000000000007bffffffffffffffffffffffffffffffffffffffffffffffffffffffff1916827bffffffffffffffffffffffffffffffffffffffffffffffffffffffff1916149050919050565b60007fc853308605851716aebf9b8085de39c1c4ef8de095a393b3a950e2fb1686bf83610ee981610f42565b6000805b600980549050811015610f37578460098281548110610f0f57610f0e61181d565b5b906000526020600020015403610f2457600191505b8080610f2f906118e6565b915050610eed565b508092505050919050565b610f5381610f4e611036565b611262565b50565b610f608282610b8e565b61103257600180600084815260200190815260200160002060000160008373ffffffffffffffffffffffffffffffffffffffff1673ffffffffffffffffffffffffffffffffffffffff16815260200190815260200160002060006101000a81548160ff021916908315150217905550610fd7611036565b73ffffffffffffffffffffffffffffffffffffffff168173ffffffffffffffffffffffffffffffffffffffff16837f2f8788117e7eff1d82e926ec794901d17c78024a50270940304540a733656f0d60405160405180910390a45b5050565b600033905090565b6110488282610b8e565b1561111c5760006001600084815260200190815260200160002060000160008373ffffffffffffffffffffffffffffffffffffffff1673ffffffffffffffffffffffffffffffffffffffff16815260200190815260200160002060006101000a81548160ff0219169083151502179055506110c1611036565b73ffffffffffffffffffffffffffffffffffffffff168173ffffffffffffffffffffffffffffffffffffffff16837ff6391f5c32d9c69d2a47ea670b442974b53935d1edc7fd64eb21e047a839171b60405160405180910390a45b5050565b611128611036565b73ffffffffffffffffffffffffffffffffffffffff16611146610b4d565b73ffffffffffffffffffffffffffffffffffffffff161461119c576040517f08c379a000000000000000000000000000000000000000000000000000000000815260040161119390611c1e565b60405180910390fd5b565b60008060009054906101000a900473ffffffffffffffffffffffffffffffffffffffff169050816000806101000a81548173ffffffffffffffffffffffffffffffffffffffff021916908373ffffffffffffffffffffffffffffffffffffffff1602179055508173ffffffffffffffffffffffffffffffffffffffff168173ffffffffffffffffffffffffffffffffffffffff167f8be0079c531659141344cd1fd0a4f28419497f9722a3daafe3b4186f6b6457e060405160405180910390a35050565b61126c8282610b8e565b6112e2576040518060400160405280601181526020017f556e617574686f72697a65643a204143520000000000000000000000000000008152506040517f08c379a00000000000000000000000000000000000000000000000000000000081526004016112d99190611cbd565b60405180910390fd5b5050565b600080fd5b600073ffffffffffffffffffffffffffffffffffffffff82169050919050565b6000611316826112eb565b9050919050565b6113268161130b565b811461133157600080fd5b50565b6000813590506113438161131d565b92915050565b60006020828403121561135f5761135e6112e6565b5b600061136d84828501611334565b91505092915050565b6000819050919050565b61138981611376565b82525050565b60006020820190506113a46000830184611380565b92915050565b6113b38161130b565b82525050565b60006020820190506113ce60008301846113aa565b92915050565b60007fffffffff0000000000000000000000000000000000000000000000000000000082169050919050565b611409816113d4565b811461141457600080fd5b50565b60008135905061142681611400565b92915050565b600060208284031215611442576114416112e6565b5b600061145084828501611417565b91505092915050565b60008115159050919050565b61146e81611459565b82525050565b60006020820190506114896000830184611465565b92915050565b61149881611376565b81146114a357600080fd5b50565b6000813590506114b58161148f565b92915050565b6000806000606084860312156114d4576114d36112e6565b5b60006114e2868287016114a6565b93505060206114f3868287016114a6565b925050604061150486828701611334565b9150509250925092565b6000819050919050565b6115218161150e565b811461152c57600080fd5b50565b60008135905061153e81611518565b92915050565b6000806040838503121561155b5761155a6112e6565b5b6000611569858286016114a6565b925050602061157a8582860161152f565b9150509250929050565b60006040820190506115996000830185611380565b6115a66020830184611380565b9392505050565b6000602082840312156115c3576115c26112e6565b5b60006115d1848285016114a6565b91505092915050565b600080600080608085870312156115f4576115f36112e6565b5b6000611602878288016114a6565b9450506020611613878288016114a6565b935050604061162487828801611334565b9250506060611635878288016114a6565b91505092959194509250565b60008060408385031215611658576116576112e6565b5b6000611666858286016114a6565b925050602061167785828601611334565b9150509250929050565b61168a8161150e565b82525050565b60006020820190506116a56000830184611681565b92915050565b600081519050919050565b600082825260208201905092915050565b6000819050602082019050919050565b6116e081611376565b82525050565b60006116f283836116d7565b60208301905092915050565b6000602082019050919050565b6000611716826116ab565b61172081856116b6565b935061172b836116c7565b8060005b8381101561175c57815161174388826116e6565b975061174e836116fe565b92505060018101905061172f565b5085935050505092915050565b60006040820190508181036000830152611783818561170b565b90508181036020830152611797818461170b565b90509392505050565b600082825260208201905092915050565b7f4944204d69736d61746368000000000000000000000000000000000000000000600082015250565b60006117e7600b836117a0565b91506117f2826117b1565b602082019050919050565b60006020820190508181036000830152611816816117da565b9050919050565b7f4e487b7100000000000000000000000000000000000000000000000000000000600052603260045260246000fd5b7f4e487b7100000000000000000000000000000000000000000000000000000000600052601160045260246000fd5b60006118868261150e565b91506118918361150e565b92508282039050818111156118a9576118a861184c565b5b92915050565b60006060820190506118c46000830186611380565b6118d16020830185611380565b6118de60408301846113aa565b949350505050565b60006118f18261150e565b91507fffffffffffffffffffffffffffffffffffffffffffffffffffffffffffffffff82036119235761192261184c565b5b600182019050919050565b7f5573657220616c726561647920686173206120526f6c65000000000000000000600082015250565b60006119646017836117a0565b915061196f8261192e565b602082019050919050565b6000602082019050818103600083015261199381611957565b9050919050565b7f57726f6e6720486f73706974616c494400000000000000000000000000000000600082015250565b60006119d06010836117a0565b91506119db8261199a565b602082019050919050565b600060208201905081810360008301526119ff816119c3565b9050919050565b6000611a118261150e565b9150611a1c8361150e565b9250828201905080821115611a3457611a3361184c565b5b92915050565b6000608082019050611a4f6000830187611380565b611a5c6020830186611380565b611a6960408301856113aa565b611a766060830184611380565b95945050505050565b7f416363657373436f6e74726f6c3a2063616e206f6e6c792072656e6f756e636560008201527f20726f6c657320666f722073656c660000000000000000000000000000000000602082015250565b6000611adb602f836117a0565b9150611ae682611a7f565b604082019050919050565b60006020820190508181036000830152611b0a81611ace565b9050919050565b7f4e487b7100000000000000000000000000000000000000000000000000000000600052604160045260246000fd5b7f4f776e61626c653a206e6577206f776e657220697320746865207a65726f206160008201527f6464726573730000000000000000000000000000000000000000000000000000602082015250565b6000611b9c6026836117a0565b9150611ba782611b40565b604082019050919050565b60006020820190508181036000830152611bcb81611b8f565b9050919050565b7f4f776e61626c653a2063616c6c6572206973206e6f7420746865206f776e6572600082015250565b6000611c086020836117a0565b9150611c1382611bd2565b602082019050919050565b60006020820190508181036000830152611c3781611bfb565b9050919050565b600081519050919050565b60005b83811015611c67578082015181840152602081019050611c4c565b60008484015250505050565b6000601f19601f8301169050919050565b6000611c8f82611c3e565b611c9981856117a0565b9350611ca9818560208601611c49565b611cb281611c73565b840191505092915050565b60006020820190508181036000830152611cd78184611c84565b90509291505056fea2646970667358221220a394f1e99dd4df64e6d8a9bc12de8370fa54c25eff072f25e44a7c6e003eff2b64736f6c63430008110033",
  "immutableReferences": {},
  "source": "// SPDX-License-Identifier: MIT\npragma solidity 0.8.17;\n\nimport \"@openzeppelin/contracts/access/AccessControl.sol\";\nimport \"@openzeppelin/contracts/access/Ownable.sol\";\n\ncontract NeuromedAccess is Ownable, AccessControl{\n    bytes32 public constant NM_ADMIN = keccak256(\"NM_ADMIN\");\n    bytes32 public constant HS_ADMIN = keccak256(\"HS_ADMIN\");\n    bytes32 public constant MREP = keccak256(\"MREP\");\n    bytes32 public constant DOCTOR = keccak256(\"DOCTOR\");\n    bytes32 public constant LAB_ASST = keccak256(\"LAB_ASST\");\n    bytes32 private NO_ROLE = 0x0000000000000000000000000000000000000000000000000000000000000000;\n    bytes32 public NO_HS = 0x39349db958ca58bbd5da126bd654d05d8d0c93f86805918f236dc076194e1955;\n\n    mapping(address => bytes32) public roleOfUser;\n\n    struct User{\n        bytes32 id;\n        bytes32 urole;\n    }\n    User[] users;\n\n    mapping(address => User) addressOfUser;\n    mapping(bytes32 => uint256) public userCountRole;\n    mapping(bytes32 => User[]) public usersForARole;\n    bytes32[] hopsital_ids;\n\n    mapping(bytes32 => bytes32) hospitalIdForHsAdmin;\n    mapping(bytes32 => bytes32) hospitalIdForLabAsst;\n\n    struct Patient{\n        bytes32 ptId;\n        string nicno;\n    }\n\n    Patient[] patients;\n    mapping(bytes32 => uint256) tokenIdforPatientId;\n\n    event UserAdded(bytes32 userId, bytes32 userRole, address userAdd, bytes32 userHs);\n    event UserRemoved(bytes32 userId, bytes32 userRole, address userAdd);\n\n    constructor(){\n        _grantRole(DEFAULT_ADMIN_ROLE, msg.sender);\n        _setRoleAdmin(NM_ADMIN, DEFAULT_ADMIN_ROLE);\n        _setRoleAdmin(HS_ADMIN, NM_ADMIN);\n        _setRoleAdmin(MREP, NM_ADMIN);\n        _setRoleAdmin(DOCTOR, NM_ADMIN);\n        _setRoleAdmin(LAB_ASST, HS_ADMIN);\n    }\n\n    function seeOwner()public view returns(address){\n        return msg.sender;\n    }\n\n    function addUser\n    (bytes32 _id, bytes32 _addingUser, address _address, bytes32 _hospitalId)\n    public{\n        require(roleOfUser[_address] == NO_ROLE, \"User already has a Role\");\n        if(_hospitalId != NO_HS){\n            require(hasHospital(_hospitalId), \"Wrong HospitalID\");\n            if(_addingUser == HS_ADMIN){\n                hospitalIdForHsAdmin[_id] = _hospitalId;\n            }else if(_addingUser == LAB_ASST){\n                hospitalIdForLabAsst[_id] = _hospitalId;\n            }\n        }\n        User memory adding_user = User(_id, _addingUser);\n        users.push(adding_user);\n        addressOfUser[_address] = adding_user;\n        grantRole(_addingUser, _address);\n        roleOfUser[_address] = _addingUser;\n        userCountRole[_addingUser] += 1;\n        emit UserAdded(_id, _addingUser, _address, _hospitalId);\n    }\n\n    function removeUser(bytes32 _id, bytes32 _removingUser, address _address)public{\n        require(addressOfUser[_address].id == _id, \"ID Mismatch\");\n        for(uint x = 0; x < users.length; x++){\n            if(users[x].id == _id){\n                delete users[x];\n                delete addressOfUser[_address];\n                delete roleOfUser[_address];\n                revokeRole(_removingUser, _address);\n                userCountRole[_removingUser] -= 1;\n                emit UserRemoved(_id, _removingUser, _address);\n            }\n        }\n    }\n\n    function hasHospital(bytes32 _hospitalId)\n    internal view onlyRole(NM_ADMIN) returns(bool){\n        bool val = false;\n        for(uint x = 0; x < hopsital_ids.length; x++){\n            if(hopsital_ids[x] == _hospitalId){\n                val = true;\n            }\n        }\n        return val;\n    }\n\n    function getAllUsers()\n    public view returns(bytes32[] memory, bytes32[] memory){\n        bytes32[] memory uid = new bytes32[](users.length);\n        bytes32[] memory urole = new bytes32[](users.length);\n        for(uint i = 0; i < users.length; i++){\n            uid[i] = users[i].id;\n            urole[i] = users[i].urole;\n        }\n        return (uid, urole);\n    }\n\n    function _checkRole(bytes32 role, address account) internal view virtual override{\n        if (!hasRole(role, account)) {\n            revert(string(\"Unauthorized: ACR\"));\n        }\n    }\n\n}",
  "sourcePath": "E:\\Web Development\\medicare\\medicare-admin-server\\truffle\\contracts\\NeuromedAccess.sol",
  "compiler": {
    "name": "solc",
    "version": "0.8.17+commit.8df45f5f.Emscripten.clang"
  },
  "schemaVersion": "3.4.10",
  "updatedAt": "2022-10-22T06:59:10.336Z",
  "devdoc": {
    "kind": "dev",
    "methods": {
      "getRoleAdmin(bytes32)": {
        "details": "Returns the admin role that controls `role`. See {grantRole} and {revokeRole}. To change a role's admin, use {_setRoleAdmin}."
      },
      "grantRole(bytes32,address)": {
        "details": "Grants `role` to `account`. If `account` had not been already granted `role`, emits a {RoleGranted} event. Requirements: - the caller must have ``role``'s admin role. May emit a {RoleGranted} event."
      },
      "hasRole(bytes32,address)": {
        "details": "Returns `true` if `account` has been granted `role`."
      },
      "owner()": {
        "details": "Returns the address of the current owner."
      },
      "renounceOwnership()": {
        "details": "Leaves the contract without owner. It will not be possible to call `onlyOwner` functions anymore. Can only be called by the current owner. NOTE: Renouncing ownership will leave the contract without an owner, thereby removing any functionality that is only available to the owner."
      },
      "renounceRole(bytes32,address)": {
        "details": "Revokes `role` from the calling account. Roles are often managed via {grantRole} and {revokeRole}: this function's purpose is to provide a mechanism for accounts to lose their privileges if they are compromised (such as when a trusted device is misplaced). If the calling account had been revoked `role`, emits a {RoleRevoked} event. Requirements: - the caller must be `account`. May emit a {RoleRevoked} event."
      },
      "revokeRole(bytes32,address)": {
        "details": "Revokes `role` from `account`. If `account` had been granted `role`, emits a {RoleRevoked} event. Requirements: - the caller must have ``role``'s admin role. May emit a {RoleRevoked} event."
      },
      "supportsInterface(bytes4)": {
        "details": "See {IERC165-supportsInterface}."
      },
      "transferOwnership(address)": {
        "details": "Transfers ownership of the contract to a new account (`newOwner`). Can only be called by the current owner."
      }
    },
    "version": 1
  },
  "userdoc": {
    "kind": "user",
    "methods": {},
    "version": 1
  }
}